:020000040800F2
:10000000B80F0020E56000088D3600088F36000824
:1000100093360008973600089B3600080000000061
:100020000000000000000000000000009F360008F3
:10003000A136000800000000A3360008A53600081D
:10004000FF600008FF600008FF600008FF60000814
:10005000FF600008FF600008FF600008FF60000804
:10006000FF600008FF600008FF600008FF600008F4
:10007000FF600008FF600008FF600008FF600008E4
:10008000FF600008FF600008FF600008FF600008D4
:10009000FF600008FF600008FF600008FF600008C4
:1000A000FF600008FF600008FF600008FF600008B4
:1000B000FF6000086B600008FF600008FF60000838
:1000C000FF600008FF600008FF600008FF60000894
:1000D000FF600008FF600008FF600008FF60000884
:1000E000FF600008FF600008FF60000800F002F8F1
:1000F00000F0B0F80AA090E8000C82448344AAF112
:100100000107DA4501D100F0A5F8AFF2090EBAE80F
:100110000F0013F0010F18BFFB1A43F0010318473B
:1001200080F30000A0F300000A444FF0000C10F828
:10013000013B13F0070408BF10F8014B1D1108BF65
:1001400010F8015B641E05D010F8016B641E01F805
:10015000016BF9D113F0080F1EBF10F8014BAD1C55
:100160000C1B09D16D1E58BF01F801CBFAD505E073
:1001700014F8016B01F8016B6D1EF9D59142D6D3CD
:10018000704700000023002400250026103A28BFF5
:1001900078C1FBD8520728BF30C148BF0B607047F9
:1001A0006E2908F09180702908F0FB81662909F01A
:1001B0003487652909F03187672909F02E8761297D
:1001C000AFF3008003681B0A28BF41F08001692952
:1001D00008F03E80642908F03B80752908F03880DB
:1001E0006F2908F08981782908F0C781E92908F08A
:1001F0002381E42908F02081F52908F01D81EF29E9
:1002000008F08681F82908F0C6810368DB0928BF59
:1002100041F08001632908F09280732908F09780EB
:10022000E32908F08284F32908F0878400207047CE
:100230001FB508F0DDFC04000020002109F0E6F9FC
:10024000401C60600020002109F0CAF9E0601FBD79
:1002500010B510BD08F09EFC1146FFF7E9FF03F052
:10026000C5F908F077FD03B4FFF7F2FF03BC04F013
:10027000DDFF000070B505460E461446314628469F
:1002800003F072FB204603F034FB70BD2DE9F05FF4
:1002900004460D4616461F46301B401C1FFA80FAC6
:1002A000781B401C1FFA80FB3B46324629462046FD
:1002B00003F030FB4FF000080FE04FF0000906E0BC
:1002C0000A9803F016FB09F101001FFA80F9D145E5
:1002D000F6DB08F101001FFA80F8D845EDDBFE4897
:1002E0004088401E83B2FC480088401E82B2002134
:1002F000084603F00FFBBDE8F09F2DE9FF4F85B0E6
:1003000081468A460020049003900798A0EB0905D7
:100310000898A0EB0A06CDF80890CDF804A0002DAF
:1003200001DD012705E00DB9002702E04FF0FF379E
:100330006D42002E02DD4FF0010806E016B94FF0C5
:10034000000802E04FF0FF387642B54201DD2C464E
:1003500000E034464FF0000B21E0019A91B2029A7E
:1003600090B203F00BFB04982844049003983044A7
:1003700003900498A04205DD0498001B04900298A5
:10038000384402900398A04205DD0398001B0390B7
:100390000198404401900BF101001FFA80FB601CA2
:1003A0008345DADD09B0BDE8F08F2DE9F041044660
:1003B0000D4616461F462B46324629462046FFF775
:1003C0009CFF3B46224629462046FFF796FF3B46C8
:1003D000324639462046FFF790FF3B4632462946D3
:1003E0003046FFF78AFFBDE8F081F8B504460D46B8
:1003F00016461F46B94800883B46324629460090BB
:100400002046FFF743FFF8BD2DE9F04104460D46B5
:1004100016461F46DDF81880EA1991B2A21990B26B
:100420004246FFF727FFEA1991B2A21B90B242465B
:10043000FFF720FFEA1B91B2A21990B24246FFF7E4
:1004400019FFEA1B91B2A21B90B24246FFF712FFBE
:10045000AA1991B2E21990B24246FFF70BFFAA190E
:1004600091B2E21B90B24246FFF704FFAA1B91B281
:10047000E21990B24246FFF7FDFEAA1B91B2E21BC1
:1004800090B24246FFF7F6FEBDE8F0812DE9FF4F3E
:1004900081B0824617469846DDF838B000244546BC
:1004A0004FEA4800C0F10306BBF1000F1FD01BE06C
:1004B000A14608E04B462246009750460299FFF7B6
:1004C000A3FF09F10109A945F4DD002E04DA042097
:1004D00000FB0460861D06E0601B042101FB006038
:1004E00000F10A066D1E641CAC42E1DD18E015E067
:1004F0002B462246009750460299FFF785FF002EB3
:1005000004DA042000FB0460861D06E0601B042161
:1005100001FB006000F10A066D1E641CAC42E7DDC1
:1005200005B0BDE8F08F2DE9F04704460D461646AC
:100530001F46DDE908893B46324629462046FFF73B
:10054000DCFE4B46424639463046FFF7D6FE2B4688
:10055000224649464046FFF7D0FEBDE8F0870288B4
:100560000B8803800A8070472DE9FF4F85B0002675
:100570000027BDF81800BDF82010884207DD08A943
:1005800006A8FFF7ECFF07A905A8FFF7E8FFBDF8ED
:100590002000BDF84C10884207DD08A913A8FFF71A
:1005A000DEFF07A912A8FFF7DAFFBDF81800BDF8B3
:1005B0002010884207DD08A906A8FFF7D0FF07A989
:1005C00005A8FFF7CCFFBDF81800BDF84C10884215
:1005D00038D1BDF8140003900490BDF81C00BDF89C
:1005E0001010884203DABDF81C00049008E0BDF842
:1005F0001C00BDF80C10884202DDBDF81C00039001
:10060000BDF84800BDF81010884203DABDF8480074
:10061000049008E0BDF84800BDF80C10884202DDE7
:10062000BDF8480003902D4800880090BDF81830B0
:10063000BDF80C201946BDF81000FFF727FE09B0E1
:10064000BDE8F08FBDF81C00BDF81410A0EB010B45
:10065000BDF82000BDF81810401A0290BDF84800FF
:10066000BDF81410451ABDF84C00BDF81810A0EBE9
:100670000109BDF84800BDF81C10A0EB010ABDF847
:100680004C00BDF82010401A0190BDF82000BDF8C4
:100690004C10884202D1BDF8208004E0BDF8200053
:1006A000401E1FFA80F8BDF818402CE0029896FB17
:1006B000F0F0BDF81410084480B2049097FBF9F0F4
:1006C000BDF81410084480B203905E442F44BDF876
:1006D0001000BDF80C1003E04A07002020000020A5
:1006E000884203DD03A904A8FFF739FFFE4800880C
:1006F00023460090BDF80C202146BDF81000FFF7FE
:10070000C5FD601C84B24445D0DDBDF82000201A30
:1007100000FB0AF6BDF81800201A00FB05F727E0D9
:10072000019896FBF0F0BDF81C10084480B20490CC
:1007300097FBF9F0BDF81410084480B203905644BA
:100740002F44BDF81000BDF80C10884203DD03A94A
:1007500004A8FFF704FFE448008823460090BDF892
:100760000C202146BDF81000FFF790FD601C84B2FC
:10077000BDF84C008442D3DD00BF60E72DE9FF4F98
:1007800083B081468A469346DDE91064D6480088E6
:100790000290A6F12000C6B204EBD47009EB600011
:1007A000401E82B20AEB0400401E83B25146484606
:1007B000019403F0AFF8129850BB002525E00C2CF3
:1007C00007D106EB4600C94901EB800010F805800F
:1007D00004E0C74800EB061010F8058000270DE084
:1007E00008F0010018B1584603F083F802E00698BB
:1007F00003F07FF84FEA6808781CC7B204EBD471A5
:10080000B7EB610FECDB681CC5B2A542D7DB2DE06E
:10081000002529E00C2C07D106EB4600B34901EB7B
:10082000800010F8058004E0B14800EB061010F8D5
:100830000580002711E0AC48A0F800B008F00100E6
:1008400038B10AEB050291B209EB070290B203F04E
:1008500095F84FEA6808781CC7B204EBD471B7EB7F
:10086000610FE8DB681CC5B2A542D3DB9E49029844
:100870000880A0484088401E83B29E480088401EE1
:1008800082B20021084603F045F807B0BDE8F08FBA
:100890002DE9FE4306460F4615461C46DDF8288026
:1008A0001DE094480088401EB04204DB9148408817
:1008B000401EB84201DABDE8FE8320788DE82101B0
:1008C0008D4803888848028839463046FFF756FF2E
:1008D000284605EBD07106EB61018EB2641C2078CE
:1008E0007E2802DC20782028DBDA00BFE3E710B5A1
:1008F0000246012000E050430B1EA1F10104E1B2C9
:10090000F9D110BD2DE9FF4F83B0074691461E4631
:10091000109C4FF0000A002543E0701B401EC1B23E
:100920000A20FFF7E4FFB9FBF0F00A21B0FBF1F277
:1009300001FB1208BAF1000F1BD1701EA84218DD8E
:10094000B8F1000F13D100202021A346CDE90014F7
:10095000029004EBDB71491001FB057188B2664916
:100960000B8861490A880499FFF708FF17E04FF0E8
:10097000010A002108F13000C0B2A346CDE90141CF
:10098000009004EBDB71491001FB057188B25A49F4
:100990000B8855490A880499FFF7F0FE00BF681CD0
:1009A000C5B2B542B9DB07B0BDE8F08F2DE9FC5FF9
:1009B0000546884691469A46DDF830B000956E208F
:1009C000019000245FE004EB04104C4911F8100082
:1009D0009BF80010884253D104EB0410474901EB07
:1009E000400040789BF80110884249D108F10F007F
:1009F00083B205F10F0082B24146284602F08AFF19
:100A000000263BE0002734E00D9890B904EB041079
:100A10003A4901EB4000801C805D8021394108404B
:100A200018B1484602F065FF21E0504602F061FF30
:100A30001DE02D48A0F8009004EB04102F4901EBB5
:100A40004000801C805D80213941084018B141463A
:100A5000284602F093FF681C85B20098281A1028D7
:100A600005D1009D08F101001FFA80F803E0781C11
:100A7000C7B2082FC8DB00BF701CC6B2202EC1DB76
:100A800000BF601C84B2019884429CDB19484088F6
:100A9000401E83B217480088401E82B200210846DB
:100AA00002F038FFBDE8FC9F2DE9FC5F0546884653
:100AB00091469A46DDF830B0009507200190002459
:100AC00076E004EB840000EB44100D4911F81000AF
:100AD0009BF80010884268D104EB840000EB4410BE
:100AE000074901EB40000DE0200000201EA0000897
:100AF00092A400084A0700202200002082AA0008D1
:100B00001EB9000840789BF8011088424DD108F1C9
:100B1000170083B205F1170082B24146284602F061
:100B2000F9FE00263FE0002738E00D98A0B904EB5D
:100B3000840000EB4410CD4901EB4000801C805D37
:100B400080213941084018B1484602F0D2FE23E026
:100B5000504602F0CEFE1FE0C548A0F8009004EB1E
:100B6000840000EB4410C14901EB4000801C805D13
:100B700080213941084018B14146284602F0FEFE66
:100B8000681C85B20098281A182805D1009D08F124
:100B900001001FFA80F803E0781CC7B2082FC4DBFD
:100BA00000BF701CC6B2482EBDDB00BF601C84B203
:100BB0000198844285DBAF484088401E83B2AD482F
:100BC0000088401E82B20021084602F0A3FEBDE864
:100BD000FC9F2DE9FC5F0546884691469A46DDF864
:100BE00030B000950420019000245FE004EB8410F5
:100BF000A14911F810009BF80010884253D104EB72
:100C000084109D4901EB400040789BF80110884218
:100C100049D108F11F0083B205F11F0082B241469D
:100C2000284602F077FE00263BE0002734E00D98CE
:100C300090B904EB8410904901EB4000801C805D6A
:100C400080213941084018B1484602F052FE21E0A7
:100C5000504602F04EFE1DE08548A0F8009004EBDF
:100C60008410854901EB4000801C805D8021394162
:100C7000084018B14146284602F080FE681C85B243
:100C80000098281A202805D1009D08F101001FFABC
:100C900080F803E0781CC7B2082FC8DB00BF701CC7
:100CA000C6B2802EC1DB00BF601C84B201988442B2
:100CB0009CDB70484088401E83B26E480088401E0E
:100CC00082B20021084602F025FEBDE8FC9F2DE916
:100CD000FF4F83B0064688469146DDE91147109DD7
:100CE000B2464FF0000B71E0BBF1000F40D104EBB6
:100CF000D471604A1288A2EB6101B14204DB5D4904
:100D00004988091B414502DA07B0BDE8F08F287811
:100D1000802802DD4FF0010B58E028780D2806D11D
:100D200008EB04001FFA80F856466D1C1EE0102CDC
:100D30000DDD102128788DE883004A464146304673
:100D4000069BFFF71BFD06F1080086B20EE028782F
:100D50008DE891004A4641463046069BFFF70EFD5E
:100D6000204604EBD07106EB61018EB26D1C2DE0C4
:100D700040480088001BB04204DB3E484088001B0E
:100D8000404500DAC0E74FF0000B202C08D1CDE938
:100D900000574A4641463046069BFFF71AFF12E0CD
:100DA000182C08D1CDE900574A4641463046069BEB
:100DB000FFF77AFE07E0CDE900574A464146304644
:100DC000069BFFF7F3FDAD1C301986B2287800288A
:100DD0008AD100BF98E72DE9FE4F0E461746984688
:100DE000DDE90D9A0C9C204607F09AF985B221495D
:100DF0000988A1EBC50000EBD071C1F34F0B43464E
:100E00003A46314658468DE81006FFF760FFBDE8C8
:100E1000FE8F2DE9F04706460F46154607F12700DD
:100E200083B206F1270082B23946304602F072FDE5
:100E300000240AE015F8149005EB440090F80180B6
:100E400049EA082002F055FD641CB4F5C86FF1DBD7
:100E500008484088401E83B206480088401E82B27F
:100E60000021084602F056FDBDE8F0871EB90008D3
:100E7000200000204A07002024BB00081FB51F20C7
:100E80000090FE4800882323024600210390084674
:100E9000FFF7FCF91F200090F84840880390F748BE
:100EA00000880290F5484088233880B201900146BE
:100EB0000020DDE90223FFF7E9F901201021F0A26B
:100EC0001F23CDE9002102904FF6FF724FF4967177
:100ED000B420FFF7FCFE01201021EDA21F23CDE975
:100EE000002102904FF6FF720A211E20FFF7EFFE4D
:100EF00001201021E8A21F23CDE9002102904FF626
:100F0000FF720A214FF4C870FFF7E1FE48F230404B
:100F10000090DA4800884FF48C7302462821039031
:100F20000020FFF7B3F91E23502205211920FFF7F7
:100F30003CFA1E234FF4DC7205214FF4C370FFF717
:100F400034FA01201021D64A1F23CDE90021029056
:100F50004FF6FF723C217820FFF7B9FE01201021E7
:100F6000D04A1F23CDE9002102904FF6FF723C21A9
:100F70004FF4A070FFF7ABFE01201021CA4A1F23D7
:100F8000CDE9002102904FF6FF722D21DC20FFF702
:100F90009EFE01201021C54A1F23CDE900210290A9
:100FA0004FF6FF724121DC20FFF791FE41234FF401
:100FB00096721946B420FFF7A0F941234FF49672B8
:100FC00037214FF48C70FFF798F94FF6FF704FF40C
:100FD00082734FF4BE725A2100905020FFF756F9E9
:100FE0001F208C2340F227126E210090A520FFF7CE
:100FF0004DF91F20C82340F22712AA210090A520F6
:10100000FFF744F91F20F0234FF4B972DC21009060
:101010004FF4A570FFF73AF901201021A4A21F2375
:10102000CDE9002102904FF6FF727321CD20FFF72A
:101030004EFE01201021A0A21F23CDE90021029025
:101040004FF6FF72AF21CD20FFF741FE01201021A6
:101050009BA21F23CDE9002102904FF6FF72DF21F2
:1010600040F24F10FFF733FE1FE3974840680390AC
:101070000020039988479448007D00F080000028F4
:10108000F2D09148008A7D4909888842ECDA8E487E
:10109000408A7A4949888842E6DA8B48008A54288F
:1010A0000EDA8948008A23280ADD8748408A1E28EC
:1010B00006DA8548408A042802DD00F0F7FAF4E2F7
:1010C0008148008AB0F5E47F0FDA7F48008AB0F5E6
:1010D000C77F0ADD7C48408A1C2806DA7A48408AA5
:1010E000052802DD01F01CFEDFE27748008AB0F53A
:1010F000967F7BDA7448008AAA2877DD7248408A96
:101100008C28F6DA7048408A6E28F6DD4FF6FF70BC
:101110004FF482734FF4BE725A2100905020FFF7B3
:10112000B5F81F20C82340F227126E210090A52099
:10113000FFF7ACF80120102164A21F23CDE90021A4
:1011400002904FF6FF728C21B920FFF7C0FD5AE1E3
:101150006149522004F0A0FB60490870262805D0A0
:101160005D49522004F098FB5C4908705B480078A8
:101170002628ECD1584804F0BAFB2628E7D1564877
:1011800004F029FC5448007800065349497840EAA5
:1011900001405149897840EA01204F49C978084304
:1011A0004F49087008460078DB2804D14DA150480B
:1011B00006F0B2FE03E04FA14D4806F0ADFE4FF63B
:1011C000FF704FF482734FF4BE725A21009050208A
:1011D000FFF75CF81F20C82340F227126E21009011
:1011E000A520FFF753F80120102100E00CE144A2F4
:1011F0001F23CDE9002102904FF6FF728221B42017
:10120000FFF765FD0120102141A21F23CDE9002138
:1012100002904FF6FF729621CD20FFF758FD4FF454
:10122000FA7006F01FFE4FF6FF704FF482734FF412
:10123000BE725A2100905020FFF728F81F20C823C3
:1012400040F227126E210090A520FFF71FF8012021
:10125000102131A21F23CDE9002102904FF6FF7229
:101260008221B420FFF733FD01201021204A1F23E3
:10127000CDE9002102904FF6FF7255E04A070020A9
:10128000CEE5D2D8B4F3D1A7B1CFC9E8B0E600001B
:10129000C9CFD2BBB2BD0000CAD7D2B30000000094
:1012A0008A0600200A060020CA0600200A0700203D
:1012B000D0A3D4B0BFA80000C9EDB7DDD6A400000C
:1012C000C8A1CFFB0000000028000020C7EBCBA284
:1012D000D0A3D4B0BFA80000060000200A00002060
:1012E0000B000020333132303030303932320000E0
:1012F0004A0600203030303030303030303000009E
:10130000D5FDD4DAB4A6C0EDD6A4BCFE0000000022
:10131000C7EBC9D4BAF30000C4FAB5C4D6A4BCFE66
:10132000CEAAA3BA000000009621B420FFF7CFFC9C
:101330001F20FA23DC22114600907820FEF7A6FF3A
:101340001F20FA234FF4AF72DC2100901846FEF7FD
:101350009DFF01201021FEA21F23CDE90021029054
:101360004FF6FF72E3218C20FFF7B1FC0120102122
:10137000FAA21F23CDE9002102904FF6FF72E3216C
:101380004FF48770FFF7A3FC3CE0F74840680390F8
:10139000002003998847F448007D00F0800088B35E
:1013A000F148008AF149098888422BDAEE48408AE0
:1013B000EE494988884225DAEB48008ADC280EDAB3
:1013C000E948008A78280ADDE748408AFA2806DAE0
:1013D000E548408ADC2802DD01F0DAFE12E0E2484E
:1013E000008AB0F5AF7F0DDADF48008AFA2809DD00
:1013F000DD48408AFA2805DADB48408ADC2801DD2E
:10140000FFF73CFDC1E7A3E6D748008AB0F5967F19
:101410007DDAD548008AAA2879DDD348408AC828D1
:10142000F6DAD148408AAA28F6DD4FF6FF704FF46D
:1014300082734FF4BE725A2100905020FEF726FFAF
:101440001F20C82340F227126E210090A520FEF72E
:101450001DFF01201021C6A21F23CDE9002102900B
:101460004FF6FF728C21B920FFF731FC08E1C34928
:10147000522004F011FAC2490870262805D0BF494D
:10148000522004F009FABE490870BD4800782628A9
:10149000ECD1BA4804F02BFA2628E7D1B74804F07B
:1014A0009AFAB64800780006B449497840EA014003
:1014B000B249897840EA0120B049C9780843B14966
:1014C000087008460078DB2805D1AFF2E811AE4875
:1014D00006F022FD04E0AFF2E411AB4806F01CFD7B
:1014E0004FF6FF704FF482734FF4BE725A21009092
:1014F0005020FEF7CBFE1F20C82340F227126E219A
:101500000090A520FEF7C2FE0120102100E0B8E007
:10151000AFF214221F23CDE9002102904FF6FF7293
:101520008221B420FFF7D3FB01201021AFF220224B
:101530001F23CDE9002102904FF6FF729621CD20A6
:10154000FFF7C5FB4FF4FA7006F08CFC4FF6FF7006
:101550004FF482734FF4BE725A2100905020FEF770
:1015600095FE1F20C82340F227126E210090A5206F
:10157000FEF78CFE01201021AFF264221F23CDE97B
:10158000002102904FF6FF728221B420FFF79FFBEB
:10159000012010217C4A1F23CDE9002102904FF643
:1015A000FF729621B420FFF792FB1F20FA23DC2262
:1015B000114600907820FEF769FE1F20FA234FF4B1
:1015C000AF72DC2100901846FEF760FE012010216A
:1015D0005FA21F23CDE9002102904FF6FF72E321A5
:1015E0008C20FFF774FB012010215CA21F23CDE9A2
:1015F000002102904FF6FF72E3214FF48770FFF74E
:1016000066FB3CE0584840680390002003998847F7
:101610005548007D00F0800088B35348008A534944
:10162000098888422BDA5048408A504949888842C4
:1016300025DA4D48008ADC280EDA4B48008A7828E3
:101640000ADD4948408AFA2806DA4748408ADC28F9
:1016500002DD01F09DFD12E04348008AB0F5AF7F46
:101660000DDA4148008AFA2809DD3F48408AFA2805
:1016700005DA3D48408ADC2801DDFFF7FFFBC1E7C2
:10168000F5E63948008AB0F5B97F0EDA3648008AA7
:10169000B0F5A57F09DD3448408AF02805DA3248E4
:1016A000408ADC2801DD00F001F8DEE4ADF5747D50
:1016B0004FF47172354903A806F051FD1E241E2512
:1016C0001F20009029480288232300210846FEF7A6
:1016D000DDFD1F200090254843880288408823387C
:1016E00081B20020FEF7D2FD01201021AFF270423E
:1016F0001F23CDE9002102904FF6FF724FF496713F
:10170000B420FFF7E4FA01201021AFF27C421F233E
:10171000CDE9002102904FF6FF720A211E20FFF74B
:10172000D6FA01201021AFF290421F23CDE900210B
:1017300002904FF6FF720A214FF4C870FFF7C7FA04
:1017400048F230400090094802884FF48C731FE043
:10175000BCCCD0F8CAB9D3C300000000B8FCBBBBF6
:10176000D6A4BCFE00000000280000204A0700208C
:10177000C7EBCBA2C9EDB7DDD6A400000600002060
:101780000A0000200B0000204A0600202CEF000871
:1017900028210020FEF77AFD1E2350220521192062
:1017A000FEF703FE1E234FF4DC7205214FF4C370D5
:1017B000FEF7FBFD4FF487734FF4A072322119201E
:1017C000FEF7F3FD01201021F9A21F23CDE900212E
:1017D00002904FF6FF7264215020FFF778FA012043
:1017E0001021F5A21F23CDE9002102904FF6FF72D0
:1017F000A0215020FFF76BFA7823FA225A21B42057
:10180000FEF7D3FDB423FA2296211846FEF7CDFD4C
:1018100001211022C4EB441003AB18441F23CDE96F
:10182000012100904FF6FF725F21D220FFF74FFA9F
:1018300001211022C5EB451003AB18441F23CDE94D
:10184000012100904FF6FF729B21D220FFF73FFA53
:10185000002010234FF6FF72692100904FF48C7026
:10186000FEF714FE002010234FF6FF72AA2100900D
:101870004FF48C70FEF70AFE69234FF490721946FC
:101880004FF48870FEF739FD71234FF48C7261219B
:101890001046FEF732FDAA234FF4907219464FF41A
:1018A0008870FEF72AFDB2234FF48C72A2211046F5
:1018B000FEF723FD1F204FF487734FF4E172F021F0
:1018C00000904FF4C370FEF7E1FC01201021BCA290
:1018D0001F23CDE9002102904FF6FF72FA214FF449
:1018E000C870FFF7F4F962E1B74841680020884703
:1018F000B548007D00F080000028F4D0B248008A8E
:10190000B24909888842EEDAAF48408AAF4949882F
:101910008842E8DAAC48008A54280EDAAA48008ADD
:1019200023280ADDA848408A1E2806DAA648408AED
:10193000042802DD00F04EF939E1A348008AB0F531
:10194000E47F0FDAA048008AB0F5C77F0ADD9E4821
:10195000408A1C2806DA9C48408A052802DD01F0EE
:10196000DFF924E19848008AB0F5967F3FDA96487F
:10197000008AB0F5827F3ADD9348408A822836DAC1
:101980009148408A502832DD601EC4B2002C00DA33
:10199000002448F230406E23E62262210090C820E5
:1019A000FEF774FC01211022C4EB441003AB184471
:1019B0001F23CDE9012100904FF6FF725F21D22055
:1019C000FFF785F91E2C0EDA002010234FF6FF7268
:1019D000692100909620FEF759FD69239E22194641
:1019E0008E20FEF78AFCC82006F03CFADFE076483D
:1019F000008AB0F5967F3FDA7348008AB0F5827F9F
:101A00003ADD7148408AC82836DA6F48408A9628FD
:101A100032DD681EC5B2002D00DA002548F23040E4
:101A2000A823E6229E210090C820FEF72FFC01216A
:101A30001022C5EB451003AB18441F23CDE901214B
:101A400000904FF6FF729B21D220FFF740F91E2D28
:101A50000EDA002010234FF6FF72AA210090962084
:101A6000FEF714FDAA239E2219468E20FEF745FCA0
:101A7000C82006F0F7F99AE05348008AAA2836DA17
:101A80005148008A822832DD4F48408A82282EDA67
:101A90004D48408A50282ADD601CC4B21E2C09DB48
:101AA00048F230407D23AA22552100908220FEF783
:101AB000EDFB1E2448F230406E23E62262210090A6
:101AC000C820FEF7E3FB01211022C4EB441003AB56
:101AD00018441F23CDE9012100904FF6FF725F21CA
:101AE000D220FFF7F4F8C82006F0BCF95FE03648D2
:101AF000008AAA2836DA3448008A822832DD324841
:101B0000408AC8282EDA3048408A96282ADD681C88
:101B1000C5B21E2D09DB48F23040BE23AA22962111
:101B200000908220FEF7B2FB1E2548F23040A82329
:101B3000E6229E210090C820FEF7A8FB012110227A
:101B4000C5EB451003AB18441F23CDE901210090DC
:101B50004FF6FF729B21D220FFF7B9F8C82006F09C
:101B600081F924E01848008AB0F5E57F1FDC1648AB
:101B7000008AB0F5CA7F1ADD1348408AB0F58A7F23
:101B800015DA1148408AF72811DD1E2C05DA002CE1
:101B900003DB07A10E4806F0BFF91E2D05DA002D64
:101BA00003DB05A10A4806F0B7F9FFF767F99BE6E2
:101BB000B3C9C8CBC6B10000B6F9CDAFC6B10000FD
:101BC000CFC2D2BBB2BD0000280000204A070020CF
:101BD0000A0700200EB51F200090FE48028823232C
:101BE00000210846FEF752FB1F200090F948438869
:101BF00002884088233881B20020FEF747FB01208D
:101C00001021AFF684121F23CDE9002102904FF678
:101C1000FF724FF49671B420FFF759F8012010219C
:101C2000AFF694121F23CDE9002102904FF6FF7208
:101C30000A211E20FFF74BF801201021AFF6A81251
:101C40001F23CDE9002102904FF6FF720A214FF4C5
:101C5000C870FFF73CF848F230400090DD48028839
:101C60004FF48C7328210020FEF710FB0120102177
:101C7000D9A21F23CDE9002102904FF6FF722D213A
:101C80006420FFF724F801201021D5A21F23CDE9FD
:101C9000002102904FF6FF722D21BE20FFF717F8AA
:101CA00001201021D0A21F23CDE9002102904FF680
:101CB000FF722D214FF48770FFF709F801201021E2
:101CC000CBA21F23CDE9002102904FF6FF722D21F8
:101CD0004FF4AF70FEF7FBFF1F204FF489734FF4F2
:101CE000E172FF2100904FF4C370FEF7CFFA01209C
:101CF0001021AFF234121F23CDE9002102904FF6DC
:101D0000FF724FF482714FF4C870FEF7E0FF462374
:101D10004FF4F07219460020FEF7EFFA82234FF4D9
:101D2000F07219460020FEF7E8FABE234FF4F07275
:101D300019460020FEF7E1FAFA234FF4F072194633
:101D40000020FEF7DAFA642332225A212820FEF717
:101D50002CFB01201021A9A21F23CDE90021029014
:101D60004FF6FF725A217820FEF7B1FF01201021B3
:101D7000A34A1F23CDE9002102904FF6FF725A219A
:101D8000BE20FEF7A4FF012010219E4A1F23CDE9AB
:101D9000002102904FF6FF725A214FF48770FEF730
:101DA00096FF0120102198A21F23CDE90021029067
:101DB0004FF6FF725A214FF4B970FEF788FFA02347
:101DC000322296212820FEF7F0FA0120102190A25D
:101DD0001F23CDE9002102904FF6FF729621782053
:101DE000FEF775FF01201021854A1F23CDE9002150
:101DF00002904FF6FF729621BE20FEF768FF012089
:101E00001021804A1F23CDE9002102904FF6FF7276
:101E100096214FF48770FEF75AFF012010217DA212
:101E20001F23CDE9002102904FF6FF7296214FF457
:101E3000B970FEF74CFFDC233222D2212820FEF7B6
:101E4000B4FA0120102175A21F23CDE900210290D0
:101E50004FF6FF72D2217820FEF739FF01201021C2
:101E6000674A1F23CDE9002102904FF6FF72D2216D
:101E7000BE20FEF72CFF01201021624A1F23CDE96E
:101E8000002102904FF6FF72D2214FF48770FEF7C7
:101E90001EFF0120102162A21F23CDE90021029024
:101EA0004FF6FF72D2214FF4B970FEF710FF26E112
:101EB0005D484168002088475B48007D00F0800055
:101EC0000028F4D05848008A424909888842EEDA4E
:101ED0005548408A3F4949888842E8DA5248008A92
:101EE00054280EDA5048008A23280ADD4E48408ADA
:101EF0001E2806DA4C48408A042802DD00F000F96A
:101F0000FDE04948008AB0F5E47F0FDA4648008AD0
:101F1000B0F5C77F0ADD4448408A1C2806DA4248EB
:101F2000408A052802DD00F0FBFEE8E03E48408ADA
:101F300078282BDA3C48408A3C2827DD48F230409C
:101F4000A0233222962100902820FEF79FF948F224
:101F50003040DC233222D22100902820FEF796F96F
:101F6000A023322296212820FEF71FFADC233222FA
:101F7000D2212820FEF719FA1F20642332225A2189
:101F800000902820FEF782F90124B8E02648408A14
:101F9000B22858DA2448408A7D2854DD48F230407F
:101FA000642332225A2100902820FEF76FF948F26C
:101FB0003040DC233222D22100902820FEF766F93F
:101FC000642332225A212820FEF7EFF9DC23322243
:101FD000D2212BE04A070020B3B5B4CE00000000A8
:101FE000B3F6B7A2B5D80000C4BFB5C4B5D80000D9
:101FF000B3CBB3B5CAB1BCE40000000031000000AF
:102000008A0600200A060020383A3030000000001E
:102010003200000031313A3030000000330000005F
:1020200031383A3030000000280000202820FEF728
:10203000BCF91F20A0233222962100902820FEF711
:1020400025F902245BE0FE48408AFA282BDAFC4896
:10205000408AB92827DD48F23040642332225A21D1
:1020600000902820FEF712F948F23040A0233222D7
:10207000962100902820FEF709F9642332225A2184
:102080002820FEF792F9A023322296212820FEF77D
:102090008CF91F20DC233222D22100902820FEF769
:1020A000F5F803242BE0E648008AB0F5E37F26DA52
:1020B000E348008AB0F5C27F21DDE148408AB0F5EF
:1020C0008C7F1CDADE48408AF02818DD012C05D10F
:1020D000AFF2CC01DB4805F01FFF0EE0022C05D16A
:1020E000AFF2D001D74805F017FF06E0032C04D16A
:1020F000AFF2D401D34805F00FFFFFF7D7FAD7E6C8
:1021000088B00120059004901F200090CE480088E0
:1021100023230246002103900846FEF7B7F81F204C
:102120000090C94840880390C74800880290C6487C
:102130004088233880B2019001460020DDE9022367
:10214000FEF7A4F801201021AFF6CC621F23CDE9E1
:10215000002102904FF6FF724FF49671B420FEF703
:10216000B6FD01201021AFF6D8621F23CDE9002172
:1021700002904FF6FF720A211E20FEF7A8FD0120F3
:102180001021AFF6EC621F23CDE9002102904FF63B
:10219000FF720A214FF4C870FEF799FD48F23040F3
:1021A0000090A94800884FF48C73024628210390C0
:1021B0000020FEF76BF81E23502205211920FEF7A0
:1021C000F4F81E234FF4DC7205214FF4C370FEF7C0
:1021D000ECF84FF487734FF4A07232211920FEF708
:1021E000E4F81F205A239622372100903220FEF770
:1021F0004DF80120102195A21F23CDE90021029066
:102200004FF6FF7241214620FEF761FD01201021AB
:1022100091A21F23CDE9002102904FF6FF724121C8
:10222000DC20FEF754FD91231A466E214620FEF76E
:10223000BCF8012010218BA21F23CDE900210290C0
:102240004FF6FF7278215A20FEF741FD912340F2AC
:1022500013126E21C820FEF7A8F80120102183A2D6
:102260001F23CDE9002102904FF6FF727821D7207D
:10227000FEF72DFDCD239122AA214620FEF795F8E9
:10228000012010217BA21F23CDE9002102904FF6EF
:10229000FF72B4215A20FEF71AFD01201021AFF27F
:1022A000C0221F23CDE9002102904FF6FF72322198
:1022B0004FF4AA70FEF70BFD01201021AFF2D822D7
:1022C0001F23CDE9002102904FF6FF726E214FF4DB
:1022D000AA70FEF7FCFC1F204FF487734FF4E172E5
:1022E000F02100904FF4C370FDF7D0FF01201021C2
:1022F000AFF234721F23CDE9002102904FF6FF7236
:10230000FA214FF4C870FEF7E2FC37E24C4840680F
:1023100003900020039988474948007D00F0800021
:102320000028F2D04648008A474909888842ECDAFA
:102330004348408A444949888842E6DA4048008A4E
:10234000542827DA3E48008A232823DD3C48408A67
:102350001E281FDA3A48408A04281BDD0498022808
:10236000D3D148F230406E234FF4CD724421009017
:1023700040F24F10FDF78AFF48F23040B4234FF48B
:10238000CD728321009040F24F10FDF77FFF0120B6
:102390000490BAE72A48008AB0F5E47F0FDA2848AB
:1023A000008AB0F5C77F0ADD2548408A1C2806DA76
:1023B0002348408A052802DD00F0B2FCA5E720484A
:1023C000008A8E287DDA1E48008A442879DD1C4860
:1023D000408A532875DA1A48408A3B2871DD0598EF
:1023E00002286ED148F23040ED234FF49B72372122
:1023F00000902B20FDF74AFF1F205A2396223721F9
:1024000000903220FDF742FF012010210FA21F2370
:10241000CDE9002102904FF6FF7241214620FEF7E0
:1024200056FC012010210CA21F23CDE900210290AF
:102430004FF6FF724121DC20FEF749FC91231DE09D
:1024400028000020CA0600204A070020C8C8C3C5CB
:10245000B3B5D5BE00000000C6E4CBFBB3B5D5BE16
:1024600000000000B1B1BEA900000000C9CFBAA3AE
:1024700000000000B9E3D6DD000000001A466E211E
:102480004620FDF792FF01201021AFF228021F2302
:10249000CDE9002102904FF6FF7278215A20FEF715
:1024A00016FC912340F213126E21C820FDF77DFF28
:1024B00001201021AFF24C021F23CDE90021029030
:1024C00000E01CE04FF6FF727821D720FEF7FFFBFB
:1024D000CD239122AA214620FDF767FF012010217C
:1024E000AFF270021F23CDE9002102904FF6FF7278
:1024F000B4215A20FEF7EBFB0120059005E7FE48CA
:10250000008AB0F5A17F7DDAFB48008AC52879DD15
:10251000F948408A5628F6DAF748408A3D28F6DD21
:10252000059801286ED148F23040ED234FF49B729C
:10253000372100902B20FDF7A9FE1F205A234FF4CE
:102540009B7237210090BE20FDF7A0FE01201021D4
:10255000AFF208121F23CDE9002102904FF6FF725F
:1025600041214620FEF7B3FB01201021AFF21812E3
:102570001F23CDE9002102904FF6FF724121DC209C
:10258000FEF7A5FB91231A466E214620FDF70DFFAD
:1025900001201021D9A21F23CDE9002102904FF67E
:1025A000FF7278215A20FEF792FB912340F213121A
:1025B0006E21C820FDF7F9FE01201021D1A21F23B2
:1025C000CDE9002102904FF6FF727821D720FEF767
:1025D0007EFBCD239122AA214620FDF7E6FE0120B5
:1025E0001021CAA21F23CDE9002102904FF6FF72ED
:1025F000B4215A20FEF76BFBCD2340F21312AA211F
:10260000C82000E011E0FDF7D0FE01201021C1A29A
:102610001F23CDE9002102904FF6FF72B421D7208D
:10262000FEF755FB0220059078E3B348008A99280D
:1026300062DAB148008A4A285EDDAF48408A9128B4
:102640005ADAAD48408A692856DD0598012853D1E9
:10265000049801282BD148F230406E234FF4CD72FC
:10266000442100904FF4AE70FDF710FE642340F259
:102670008B124B214FF4AA70FDF797FE0120102119
:10268000AFF220221F23CDE9002102904FF6FF7206
:1026900050214FF4B470FEF71AFB0498401CC0B2EE
:1026A000049001200790C82005F0DCFB36E348F2D7
:1026B0003040B4234FF4C9728321009040F25B1084
:1026C000FDF7E4FDA6234FF4C8728B2140F25910A8
:1026D000FDF76BFE01201021AFF278221F23CDE918
:1026E000002102904FF6FF728F214FF4B470FEF775
:1026F000EEFA0120069011E37F48008AB0F58D7F45
:1027000062DC7D48008AD0285EDD7B48408A9128C3
:102710005ADA7948408A692856DD0598012853D14C
:10272000049801282BD148F230406E234FF4CD722B
:10273000442100904FF4AE70FDF7A8FD642340F2F1
:102740008B124B214FF4AA70FDF72FFE01201021B0
:10275000AFF2E8221F23CDE9002102904FF6FF726D
:1027600050214FF4B470FEF7B2FA0498401CC0B286
:10277000049002200790C82005F074FBCEE248F2D6
:102780003040B4234FF4C9728321009040F25B10B3
:10279000FDF77CFDA6234FF4C8728B2140F259103F
:1027A000FDF703FE01201021AFF240321F23CDE9D7
:1027B000002102904FF6FF728F214FF4B470FEF7A4
:1027C00086FA02200690A9E24B48008A972862DA2E
:1027D0004948008A4C285EDD4748408AD1285ADAA9
:1027E0004548408AB22856DD0598012853D10498FF
:1027F00001282BD148F230406E234FF4CD72442192
:1028000000904FF4AE70FDF741FD642340F28B124F
:102810004B214FF4AA70FDF7C8FD01201021AFF243
:10282000AC321F23CDE9002102904FF6FF725021F8
:102830004FF4B470FEF74BFA0498401CC0B20490F9
:1028400003200790C82005F00DFB67E248F23040F6
:10285000B4234FF4C9728321009040F25B10FDF75E
:1028600015FDA6234FF4C8728B2140F25910FDF7D5
:102870009CFD01201021AFF204421F23CDE900216D
:1028800002904FF6FF728F214FF4B470FEF71FFADB
:102890000320069042E21848008A992875DA164803
:1028A000008A4A2871DD1448408A91286DDA12485E
:1028B000408A692869DD0598022866D104980128B4
:1028C0003DD148F230406E234FF4CD724421009048
:1028D0004FF4AE70FDF7DAFC642340F28B124B210B
:1028E0004FF4AA70FDF761FD0120102103A21F2300
:1028F000CDE90021029011E028000020BDADC3C544
:1029000000000000C9EEDBDA00000000D6E9BAA33F
:1029100000000000B7F0C9BD000000004FF6FF72D4
:1029200050214FF4B470FEF7D2F90498401CC0B2A5
:10293000049004200790C82005F094FAEEE148F2D4
:102940003040B4234FF4C9728321009040F25B10F1
:10295000FDF79CFCA6234FF4C8728B2140F259105E
:10296000FDF723FD01201021AFF270021F23CDE9F6
:10297000002102904FF6FF728F214FF4B470FEF7E2
:10298000A6F904200690C9E1FFE7FE48008AB0F5E9
:102990008D7F62DCFB48008AD0285EDDF948408AE2
:1029A00091285ADAF748408A692856DD05980228A6
:1029B00053D1049801282BD148F230406E234FF4B4
:1029C000CD72442100904FF4AE70FDF75FFC64239C
:1029D00040F28B124B214FF4AA70FDF7E6FC012068
:1029E0001021AFF2E0021F23CDE9002102904FF643
:1029F000FF7250214FF4B470FEF769F90498401C3F
:102A0000C0B2049005200790C82005F02BFA85E19C
:102A100048F23040B4234FF4C9728321009040F251
:102A20005B10FDF733FCA6234FF4C8728B2140F2F4
:102A30005910FDF7BAFC01201021AFF238121F2304
:102A4000CDE9002102904FF6FF728F214FF4B47050
:102A5000FEF73DF90520069060E1CA48008A9728F4
:102A600062DAC848008A4C285EDDC648408AD12810
:102A70005ADAC448408AB22856DD0598022853D154
:102A8000049801282BD148F230406E234FF4CD72C8
:102A9000442100904FF4AE70FDF7F8FB642340F240
:102AA0008B124B214FF4AA70FDF77FFC01201021FF
:102AB000AFF2A8121F23CDE9002102904FF6FF725A
:102AC00050214FF4B470FEF702F90498401CC0B2D4
:102AD000049006200790C82005F0C4F91EE148F2D2
:102AE0003040B4234FF4C9728321009040F25B1050
:102AF000FDF7CCFBA6234FF4C8728B2140F259108E
:102B0000FDF753FC01201021AFF200221F23CDE975
:102B1000002102904FF6FF728F214FF4B470FEF740
:102B2000D6F806200690F9E09648008AB0F58D7F29
:102B300062DC9448008AD0285EDD9248408AD12821
:102B40005ADA9048408AB22856DD0598022853D1B7
:102B5000049801282BD148F230406E234FF4CD72F7
:102B6000442100904FF4AE70FDF790FB642340F2D7
:102B70008B124B214FF4AA70FDF717FC0120102196
:102B8000AFF270221F23CDE9002102904FF6FF72B1
:102B900050214FF4B470FEF79AF80498401CC0B26C
:102BA000049007200790C82005F05CF9B6E048F2D1
:102BB0003040B4234FF4C9728321009040F25B107F
:102BC000FDF764FBA6234FF4C8728B2140F2591025
:102BD000FDF7EBFB01201021AFF2C8221F23CDE946
:102BE000002102904FF6FF728F214FF4B470FEF770
:102BF0006EF80720069091E06248008AB0F5E57F04
:102C00006FDC6048008AB0F5CA7F6ADD5D48408AA3
:102C1000B0F58A7F65DA5B48408AF7287EDD079841
:102C2000012805D1AFF2C471574805F075F934E0B9
:102C30000798022805D1AFF2CC71534805F06CF922
:102C40002BE00798032805D1AFF2D8714E4805F064
:102C500063F922E00798042805D1AFF260314A48B1
:102C600005F05AF919E00798052805D1AFF26C3143
:102C7000454805F051F910E00798062805D1AFF254
:102C80007431414805F048F907E00798072804D156
:102C9000AFF280313C4805F03FF90698012805D194
:102CA000AFF64001394805F037F935E006980228BB
:102CB00005D1AFF64801354805F02EF92CE006980D
:102CC000032805D1AFF65401304805F025F923E07B
:102CD0000698042806D1AFF2DC312C4805F01CF927
:102CE0001AE01BE00698052805D1AFF2E831274825
:102CF00005F012F910E00698062805D1AFF2F4317C
:102D0000224805F009F907E00698072804D1AFF238
:102D1000FC311E4805F000F9FEF75CFFFFF7F6BA3C
:102D20000EB54FF6FF7000F035FE1F2000901848DA
:102D30000288232300210846FDF7A8FA1F200090EF
:102D40001348438802884088233881B20020FDF769
:102D50009DFA012010210FA21F23CDE9002102902E
:102D60004FF6FF720A214FF4AF70FDF7B0FF01205C
:102D700010210DA21F23CDE9002102904FF6FF7212
:102D80000A2117E0280000208A0600200A060020F9
:102D90004A070020BBB6D3ADCAB9D3C3D7D4D6FA3D
:102DA000CADBC6B1BBFA0000CEDED6BDBBAFD6D5FE
:102DB000B6CB00001E20FDF78AFF01201021FE4A3D
:102DC0001F23CDE9002102904FF6FF724FF4967158
:102DD000B420FDF77CFF48F230400090F7480288AD
:102DE0004FF48C7328210020FDF750FA1F209B23FD
:102DF0004FF48272322100905A20FDF747FA1F20CB
:102E00009B234FF4B972322100904FF48770FDF785
:102E10003DFA1F204FF48773BE22A52100905A204F
:102E2000FDF734FA1F204FF487734FF4B972A521D0
:102E30000090C820FDF72AFA01201021E0A21F23EC
:102E4000CDE9002102904FF6FF725A21C820FDF70C
:102E50003EFF01201021DCA21F23CDE900210290BA
:102E60004FF6FF7278214FF49170FDF730FF01208B
:102E70001021D8A21F23CDE9002102904FF6FF7246
:102E8000F0216E20FDF723FF01201021D4A21F2383
:102E9000CDE9002102904FF6FF72F0214FF48270CD
:102EA000FDF715FFD14A50215A20FDF7B2FFD04A55
:102EB000A5214FF48770FDF7ACFFCE4A322140F2D6
:102EC0002710FDF7A6FFCC4AA5217D20FDF7A1FF25
:102ED00027E0CA48416800208847C848007D00F0C4
:102EE0008000F0B1C548008AB4490988884218DAE0
:102EF000C248408AB1494988884212DABF48008AEC
:102F0000B0F5827F0DDABD48008A5A2809DDBB483A
:102F1000408AA02805DAB948408A262801DDFFF753
:102F2000EFF8D6E70EB51F200090A44802882323AF
:102F300000210846FDF7AAF91F2000909F4843880A
:102F400002884088233881B20020FDF79FF948F2BB
:102F500030400090994802884FF48C73282100205B
:102F6000FDF794F901201021934A1F23CDE9002198
:102F700002904FF6FF724FF49671B420FDF7A7FE52
:102F80001F204FF48C734FF4C87226210090232029
:102F9000FDF77CF90120102199A21F23CDE9002122
:102FA00002904FF6FF726421AA20FDF790FE0120E7
:102FB000102198A21F23CDE9002102904FF6FF7245
:102FC0004FF482714FF49670FDF781FE42F20F715B
:102FD00041F61F4003F01CF82DE0884841680020AE
:102FE00088478648007D00F0800020B38348008A2F
:102FF0007249098888421EDA8048408A6F494988A8
:10300000884218DA7D48008AB0F5AE7F13DA7B4833
:10301000008AB0F58F7F0EDB7848408AB0F58E7F4E
:1030200009DC7648408AF02805DD0021022003F003
:1030300010FCFFF775FED0E70EB51F2000905F482B
:103040000288232300210846FDF720F91F20009065
:103050005A48438802884088233881B20020FDF70F
:1030600015F948F230400090544802884FF48C73B0
:1030700028210020FDF70AF9012010214E4A1F23C4
:10308000CDE9002102904FF6FF724FF49671B42003
:10309000FDF71DFE1F204FF48C734FF4C8722621DC
:1030A00000902320FDF7F2F8012010215BA21F23DE
:1030B000CDE9002102904FF6FF726421BE20FDF79A
:1030C00006FE0120102158A21F23CDE90021029005
:1030D0004FF6FF72C8216E20FDF7F9FD0120102187
:1030E00052A21F23CDE9002102904FF6FF72C821A2
:1030F0004FF49B70FDF7EBFD49E04048416800202C
:1031000088473E48007D00F0800000283FD03B48C3
:10311000008A2A490988884239DA3848408A27498A
:103120004988884233DA3548008A96281ADA3348C3
:10313000008A6E2816DD3148408ADC2812DA2F48D2
:10314000408AC1280EDD3A483A493B4B3B4ACDE91B
:1031500000103B493B4804F0DFFE3A4802F032F9E8
:10316000FFF7E0FE2548008AB0F5AC7F0FDC23486E
:10317000008AB0F5997F0ADB2048408AB0F5AF7F1E
:1031800005DA1E48408AB42801DDFFF7C9FDB4E71F
:103190000EB51F200090094802882323002108460D
:1031A000FDF774F81F200090044843880288408887
:1031B000233881B2002047E0801200084A0700202F
:1031C000B9BAC6B100000000BBE1D4B1B7FECEF180
:1031D00000000000B5E7BBB0B6A9C6B10000000012
:1031E000BBA5C1AACDF8C8A1C6B100002CBD00087E
:1031F000ACC900082CD60008ACE20008280000206A
:10320000C4FAD2D1B3C9B9A6B9BAC2F2B8C3C6B169
:1032100000000000CDCBB3F600000000C8B7C8CF57
:10322000B9BAC2F200000000CAC70000B7F100003E
:10323000CA0600200A0600208A0600204A0600204E
:10324000C4F30008FC030020FDF720F80120102142
:10325000F74A1F23CDE9002102904FF6FF724FF489
:103260009671B420FDF733FD01201021F04A103291
:103270001F23CDE9002102904FF6FF720A211E2084
:10328000FDF725FD01201021E94A18321F23CDE961
:10329000002102904FF6FF720A214FF4C870FDF72B
:1032A00016FD48F230400090E24802884FF48C73DB
:1032B00028210020FCF7EAFF1E23502205211920B7
:1032C000FDF773F81E234FF4DC7205214FF4C37031
:1032D000FDF76BF801201021D74A1F23CDE900210B
:1032E00002904FF6FF725A216E20FDF7F0FC01208C
:1032F0001021D24A1F23CDE9002102904FF6FF7220
:103300005A214FF4A570FDF7E2FC01201021CC4AB0
:103310001F23CDE9002102904FF6FF724B21DC20E4
:10332000FDF7D5FC01201021C64A1F23CDE900215D
:1033300002904FF6FF725F21DC20FDF7C8FC5F238F
:103340004FF496721946B420FCF7D7FF5F234FF471
:10335000967255214FF48C70FCF7CFFF012010219D
:10336000B9A21F23CDE9002102904FF6FF7246213A
:103370004FF4C370FDF7ABFC78234FF4DC725A2195
:103380004FF4C370FDF711F801201021B0A21F23E4
:10339000CDE9002102904FF6FF7282214FF4C370F5
:1033A000FDF795FCB4234FF4DC7296214FF4C37003
:1033B000FCF7FBFF01201021A8A21F23CDE900216B
:1033C00002904FF6FF72A0214FF4C870FDF77FFC0A
:1033D00001201021A2A21F23CDE9002102904FF667
:1033E000FF72BE214FF4C370FDF771FCFA234FF456
:1033F000DC72DC214FF4C370FCF7D7FFB4234FF429
:10340000DC7296214FF4C370FCF7CFFF8D489749CB
:1034100088421BD10120102195A21F23CDE9002154
:1034200002904FF6FF7264218800FDF750FC0120E6
:1034300010218FA21F23CDE9002102904FF6FF72C9
:10344000D2214FF4C870FDF742FC1AE00120102190
:1034500088A21F23CDE9002102904FF6FF7264215C
:103460008800FDF734FC0120102182A21F23CDE942
:10347000002102904FF6FF72DC214FF4C870FDF777
:1034800026FC82E01F20F0234FF48C72D2210090A2
:10349000B420FCF7FBFE0120102177A21F23CDE909
:1034A000002102904FF6FF72DC21BE20FDF70FFCD9
:1034B000C82004F0D7FC4FF6E070F0234FF48C7274
:1034C000D2210090B420FCF7E1FE012010216AA275
:1034D0004FF6E073CDE9002102904FF6FF72DC2138
:1034E000BE20FDF7F4FBC82004F0BCFC6548416831
:1034F000002088476348007D00F08000002844D009
:103500006048008A4B49098888423EDA5D48408A13
:1035100048494988884238DA5A48008A54280DDADE
:103520005848008A232809DD5648408A1E2805DAB3
:103530005448408A042801DDFDF7A0FC5148008A68
:10354000B0F5E47F0EDA4F48008AB0F5C77F09DD99
:103550004C48408A1C2805DA4A48408A052801DD83
:10356000FFF7DEFB4748008AB0F58C7F0DDA45484F
:10357000008AB42809DD4348408AF02805DA41482A
:10358000408AD22801DDFFF757FD7BE710B54FF4E5
:1035900000513D4802F041FF322004F063FC02F08C
:1035A0007AF802F072F802F063F8412002F0B1F804
:1035B0004FF40051344802F032FF322004F052FC44
:1035C0004FF40051304802F028FF322004F04AFC4A
:1035D0004FF400512C4802F022FF322004F042FC4C
:1035E0004FF40051284802F018FF10BD00F0CBF84E
:1035F000482004F01DFC01F087FD4FF4E13001F09C
:103600009FFD4FF4E13001F0D6FD01F0A0FE00F087
:1036100057FA01F080FB4FF6FF7000F0BBF901F0A4
:1036200085FFFFF7B3FF01E0FFF77AFBFCE700003F
:10363000801200084A0700208A0600200A0600209F
:10364000CA0600200A070020D7DCBDF0B6EE000055
:10365000D7DCCAD6D0F8B7D1000000002430000073
:10366000D3A6D6A7B8B6BDF0B6EE0000B01B0008D2
:103670002438350024343500C8B7C8CFB2A2D6A745
:10368000B8B600002800002000100140704700BFBD
:10369000FEE700BFFEE700BFFEE700BFFEE77047A2
:1036A00070477047704700000CB5002001900090F3
:1036B0006C48006840F480306A49086000BF69487F
:1036C000006800F4003000900198401C01900098C0
:1036D00018B90198B0F5A06FF1D16248006800F404
:1036E000003010B10120009001E00020009000980F
:1036F000012843D15C48006840F010005A49086036
:103700000846006820F0030008600846006840F0A2
:1037100002000860534840685249486008464068C3
:1037200048600846406840F4806048600846406849
:1037300020F47C1048600846406840F4E810486077
:103740000846006840F08070086000BF4548006887
:1037500000F000700028F9D04248406820F00300D3
:10376000404948600846406840F00200486000BF99
:103770003C48406800F00C000828F9D10CBD10B599
:10378000FFF792FF10BD10B53648006840F0010009
:103790003449086008464068344908403149486067
:1037A00008460068324908402E490860084600680B
:1037B00020F4802008600846406820F4FE0048603D
:1037C0004FF41F008860FFF7DAFF4FF000602949CF
:1037D000086010BD10B5002100200022214B5B685D
:1037E00003F00C0121B1042906D0082928D107E0F3
:1037F000214B224C236027E01F4B204C236023E009
:10380000184B5B6803F47010164B5B6803F480324E
:10381000022303EB904022B9194B4343174C23601A
:103820000DE0104B5B6803F4003323B1144B4343AA
:10383000124C236003E0104B4343104C236003E021
:103840000D4B0E4C236000BF00BF064B5B68C3F3FB
:1038500003130C4CE15C094B1B68CB40074C236005
:1038600010BD000000100240002002400000FFF8E0
:10387000FFFFF6FE08ED00E000127A000C000020C9
:1038800000093D001000002010B504464FF4007000
:10389000FE490860401008602146FD4801F092FA98
:1038A0004FF40070F949091F086010BD10B50446B7
:1038B0004FF40070F54908604010091F0860214668
:1038C000F34801F07FFA4FF40070F049091F0860D7
:1038D00010BD70B505460C462846FFF7D5FFE0B28F
:1038E000FFF7E4FF70BD10B5EA49087AFFF7CCFF97
:1038F00010BD10B50446F82101EA2420FFF7D6FFD9
:10390000FC2101EAE400FFF7D1FFE106080EFFF712
:10391000CDFF10BD2DE9F04104460D4616461F4669
:10392000DC49887AFFF7B0FF2012FFF7BFFFE0B253
:10393000FFF7BCFF3012FFF7B9FFF0B2FFF7B6FF99
:10394000D449087BFFF7A0FF2812FFF7AFFFE8B2CA
:10395000FFF7ACFF3812FFF7A9FFF8B2FFF7A6FF99
:10396000FFF7C1FFBDE8F08170B504460D462B4658
:10397000224629462046FFF7CDFF70BD70B50446AC
:103980000D4629462046FFF7EFFFC3480088FFF7A2
:10399000B0FF70BD70B50646BE484088401E83B279
:1039A000BC480088401E82B200210846FFF7B2FFE3
:1039B0004FF40070B54908604010091F08600024EA
:1039C0000AE0002503E03046FFF793FF6D1CB14885
:1039D0000088A842F7D8641CAE484088A042F0D8BE
:1039E0004FF40070A949091F086070BD08B5012196
:1039F000082002F021FF41F20230ADF80000032060
:103A00008DF8020010208DF8030069469F48143895
:103A100002F056FC08BD10B54FF480509B49086079
:103A2000642004F01FFA4FF480509849091F086081
:103A3000322004F017FA10BD10B504462A2095492B
:103A400048812B2088812C20088134B1012C10D092
:103A5000022C1AD0032C30D123E04FF4A0708D49F2
:103A600008804FF4F070488048213620FFF731FF7E
:103A700024E04FF4F070874908804FF4A07048802C
:103A800028213620FFF725FF18E04FF4A070814968
:103A900008804FF4F070488088213620FFF719FF26
:103AA0000CE04FF4F0707B4908804FF4A070488020
:103AB000E8213620FFF70DFF00E000BF00BF10BD7A
:103AC00010B501F0A3F9FFF791FFFFF7A4FFF12074
:103AD000FFF7DAFE3620FFF7E9FE0420FFF7E6FEE7
:103AE0000020FFF7E3FE3C20FFF7E0FE0F20FFF78A
:103AF000DDFE8F20FFF7DAFEF220FFF7C5FE18206B
:103B0000FFF7D4FEA320FFF7D1FE1220FFF7CEFE71
:103B10000220FFF7CBFEB220FFF7C8FE1220FFF70E
:103B2000C5FEFF20FFF7C2FE1020FFF7BFFE0020FA
:103B3000FFF7BCFEF820FFF7A7FE2120FFF7B6FE37
:103B40000420FFF7B3FEF920FFF79EFE0020FFF7E9
:103B5000ADFE0820FFF7AAFE3620FFF795FE0820ED
:103B6000FFF7A4FEB420FFF78FFE0020FFF79EFEB4
:103B7000C120FFF789FE4720FFF798FEC520FFF719
:103B800083FE0020FFF792FEAF20FFF78FFE80201C
:103B9000FFF78CFE0020FFF789FEE020FFF774FEA0
:103BA0000F20FFF783FE1F20FFF780FE1C20FFF78A
:103BB0007DFE0C20FFF77AFE0F20FFF777FE08202E
:103BC000FFF774FE4820FFF771FE9820FFF76EFEA6
:103BD0003720FFF76BFE0A20FFF768FE1320FFF780
:103BE00065FE0420FFF762FE1120FFF75FFE0D2047
:103BF000FFF75CFE0020FFF759FEE120FFF744FECF
:103C00000F20FFF753FE3220FFF750FE2E20FFF764
:103C10004DFE0B20FFF74AFE0D20FFF747FE052063
:103C2000FFF744FE4720FFF741FE7520FFF73EFEF9
:103C30003720FFF73BFE0620FFF738FE1020FFF786
:103C400035FE0320FFF732FE2420FFF72FFE202051
:103C5000FFF72CFE0020FFF729FE3A20FFF714FEA5
:103C60006620FFF723FE1120FFF70EFE3620FFF738
:103C70000BFE2820FFF71AFE782004F0F3F8292025
:103C8000FFF702FE0320FFF7D7FE07E0140C014008
:103C9000003800404A07002020000020012003498E
:103CA00008604FF6FF70FFF775FE10BD848121425A
:103CB00010B501F0F9F810BD70B50446002601F00A
:103CC0000AF92546E11704EB11610912A02202EB63
:103CD0004101C8B201F0B1F901F03EF9E11704EB7E
:103CE00011610912A4EB0121C8B201F0A6F901F09B
:103CF00033F901F0F0F8A12001F09FF901F02CF95F
:103D0000002001F0C8F9064601F005F9304670BD03
:103D100070B504460E4601F0DEF82546E11704EBC7
:103D200011610912A02202EB4101C8B201F085F92C
:103D300001F012F9E11704EB11610912A4EB012162
:103D4000C8B201F07AF901F007F9304601F075F9CF
:103D500001F002F901F0DFF80A2004F083F870BDE9
:103D60002DE9F04105460E461746002409E0E20021
:103D700026FA02F2D1B22A1990B2FFF7C9FF601CED
:103D8000C4B2BC42F3DBBDE8F0812DE9F041074647
:103D90000C460026002509E036023919491B491E48
:103DA00088B2FFF789FF0644681CC5B2A542F3DB61
:103DB0003046BDE8F08110B5FF20FFF77DFF0446D7
:103DC000552C01D1002010BD5521FF20FFF7A0FF89
:103DD000FF20FFF771FF0446552C01D10020F2E7C8
:103DE0000120F0E770B506460C46154608E030465F
:103DF000721C96B2FFF760FF04F8010B681E85B2D3
:103E0000002DF4D170BD70B505460C46164606E08F
:103E100021782846FFF77CFF681C85B2641C301EA1
:103E2000A6F101018EB2F3D170BD0000002100BFE8
:103E300015E000F080021AB10122FE4B1A6002E088
:103E40000022FC4B1A604206100E0022F94B1B1D8B
:103E50001A600122F84BC3F888214A1CD1B2082904
:103E6000E7DB704770B50646002500240020F149C5
:103E7000091D0860F049C1F88401EE490831086065
:103E80003046FFF7D3FF062004F008F80020EA4987
:103E9000C1F88801012004F001F80120E549091D5D
:103EA00008600020E449C1F8880100BF13E04FF624
:103EB000FF7000EA44040020DE49091D086001206B
:103EC000DD49C1F88801DB485438006808B1601C3E
:103ED00084B2681CC5B2102DE9DB24110120D5493C
:103EE00008310860204670BD2DE9FE43804600275A
:103EF000002406E04046FFF7B5FF2DF81400601CD3
:103F000084B2052CF6DB002416E0601C85B20FE0BD
:103F10003DF814003DF81510884207DD3DF81460A7
:103F20003DF815002DF814002DF81560681C85B2B9
:103F3000052DEDDB601C84B2042CE6DB0027012498
:103F400005E03DF81400384487B2601C84B2042CAC
:103F5000F7DB032097FBF0F086B23046BDE8FE8326
:103F60002DE9F04104460D46B4480078FFF7BCFF48
:103F70000646B3480078FFF7B7FF074626802F8034
:103F80000120BDE8F0817FB504460D4602A903A8D3
:103F9000FFF7E6FF064616B9002004B070BD69467B
:103FA00001A8FFF7DDFF06460EB90020F5E7BDF8D2
:103FB0000400BDF80C10884206DCBDF80C10BDF8FA
:103FC0000400323081420CDBBDF80C00BDF8041057
:103FD000884236DCBDF80410BDF80C003230814256
:103FE0002FDABDF80000BDF80810884206DCBDF8E5
:103FF0000810BDF80000323081420CDBBDF808002B
:10400000BDF8001088421CDCBDF80010BDF80800A7
:104010003230814215DABDF80C10BDF80420881842
:1040200000EBD071C1F34F012180BDF80810BDF83D
:104030000020881800EBD071C1F34F0129800120C6
:10404000ABE70020A9E7F8B504460D4616467D48C3
:10405000068004F10D018AB2193988B22B4629462F
:10406000FCF74BF905F10D0083B2193881B22246F5
:104070002046FCF742F96A1C91B2621C90B2FFF72D
:104080007DFC6A1C91B2621E90B2FFF777FC6A1E3B
:1040900091B2621C90B2FFF771FC6A1E91B2621E6F
:1040A00090B2FFF76BFC0020062300906548028861
:1040B00029462046FCF7EAF9F8BD70B504460D46DE
:1040C00016466048068029462046FFF757FC611CCB
:1040D00088B22946FFF752FC681C81B22046FFF7E0
:1040E0004DFC6A1C91B2621C90B2FFF747FC70BD98
:1040F0002DE9F04104464F4858380068002853D154
:1041000024B15149881EFFF73EFF3CE04E49881E0E
:10411000FFF739FFB8B34C491239B1F9200005F067
:104120000FFE074648491239088A05F021FE8046ED
:10413000454812388169404605F02EFE064639464C
:1041400005F09EFC054605F0DBFD3F49123908826B
:10415000B1F9220005F0F4FD07463B491239488ABF
:1041600005F006FE804638481238C169404605F021
:1041700013FE0646394605F083FC054605F0C0FDF2
:1041800031491239488230481238007D00F08000F1
:1041900010BBC0202C49123908750846008A888156
:1041A0000846408AC88117E027481238007D00F091
:1041B000800040B124481238007D20F08000224960
:1041C0001239087508E000201F4912398881C8811A
:1041D0004FF6FF70088248821B481238007D00F0BD
:1041E0008000BDE8F08170B5174912398869174918
:1041F00005F0D2FD054605F067FD04460422214680
:104200002820FFF7ADFD10491239C8690F4905F0A4
:10421000C3FD054605F058FD0446042221462C2026
:10422000FFF79EFD08481238B0F920100222302016
:104230000EE00000840121420000214250000020D5
:1042400051000020200000203A00002020BCBE4C7D
:10425000FFF786FDF748B0F9221002223220FFF75F
:104260007FFDF44890F824103420FFF751FD0A2414
:1042700021463520FFF74CFD70BD70B53520FFF7A6
:104280001BFD04460A2C42D104212820FFF77DFDA6
:104290000446204605F054FD0546E74905F052FC6A
:1042A000E449886104212C20FFF76FFD0446204675
:1042B00005F046FD0546E04905F044FCDD49C861CE
:1042C00002213020FFF761FD00B2DA4908840221A3
:1042D0003220FFF75AFD00B2D64948843420FFF758
:1042E000EBFCD44981F82400084690F8240030B152
:1042F0009020D2490870D020D149087005E0D02024
:10430000CE4908709020CE490870012070BD002071
:10431000FCE72DE9F84F04460D4617461E46DDE939
:104320000CABDDE90A894FF47840C64908800120CA
:10433000C5A31022A02100902820FCF7A9FA012093
:10434000C2A31022A02100907820FCF7A1FA01203E
:10435000BFA31022B42100902820FCF799FA012075
:10436000BCA31022B42100907820FCF791FA012020
:10437000B9A31022C82100902820FCF789FA012057
:10438000B6A31022C82100907820FCF781FA012002
:10439000B3A31022DC2100902820FCF779FA012039
:1043A000B0A31022DC2100907820FCF771FA0120E4
:1043B000ADA31022F02100902820FCF769FA10200C
:1043C00004232246A02100904020FCF79BFA1020F5
:1043D00004232A46A02100909020FCF793FA102095
:1043E00004233A46B42100904020FCF78BFA1020B9
:1043F00004233246B42100909020FCF783FA102069
:1044000004234246C82100904020FCF77BFA10208C
:1044100004234A46C82100909020FCF773FA10202C
:1044200004235246DC2100904020FCF76BFA102058
:1044300004235A46DC2100909020FCF763FA1020F8
:1044400000908B480188032360200E9AFCF75AFAEB
:10445000BDE8F88F00B595B0002010900A9010903C
:104460001F20784908804FF6FF7082490880FFF7C7
:1044700091FA4FF47840734908804FF6FF70FFF7C8
:1044800089FA00206F49088001207BA3102228218F
:1044900000900A20FCF7FCF901207FA310223821AC
:1044A00000900A20FCF7F4F9012084A3102248218F
:1044B00000900A20FCF7ECF9012088A31022582173
:1044C00000900A20FCF7E4F94FF4784214210846E2
:1044D000FFF7B9FD002057490875886153E2554838
:1044E000406809900120099988475248007D00F0F2
:1044F000C00040287AD100200A904E48007D20F06C
:1045000040004C4908750846018A11AA109822F803
:1045100020104848418A109802EB80004180109892
:10452000401CC0B210901098012806D0022815D067
:10453000032829D0042810D141E04FF6FF7214213E
:104540000846FFF780FD4A480088143880B24FF4CF
:10455000784214210990FFF776FDC7E344480088AC
:10456000143880B24FF6FF7214210990FFF76BFDEB
:104570003F484088143880B24FF478420146099091
:104580001420FFF760FDB1E339484088143880B249
:104590004FF6FF72014609901420FFF754FD34488E
:1045A0004088143880B2099031480088143880B2AD
:1045B0004FF4784208900999FFF745FD96E3BDF85E
:1045C0004400BDF84810401A0990002801DB099802
:1045D00001E0099840420D90BDF8461011A8C0882E
:1045E000081A0990002802DB099802E07FE3099885
:1045F00040420C900D9840430D900C9840430C9015
:10460000DDE90C100844059005F04FF8CDE90601EE
:1046100004F0C0FFCDE9080105F01AF880B20F9050
:10462000BDF84C00BDF85010401A0990002863DB1B
:10463000099863E02800002020BCBE4C50000020F8
:10464000510000202000002078313A0079313A00F2
:1046500078323A0079323A0078333A0079333A00C6
:1046600078343A0079343A006661632069733A001D
:104670004A07002022000020506C65617365207598
:10468000736520746865207374796C757320636C2E
:1046900069636B207468650063726F7373206F6E5B
:1046A000207468652073637265656E2E546865209A
:1046B00063726F73732077696C6C0000616C776153
:1046C0007973206D6F766520756E74696C207468DF
:1046D000652073637265656E2000000061646A7511
:1046E00073746D656E7420697320636F6D706C6593
:1046F0007465642E00000000099840420D9011A8D6
:104700004189C089081A0990002801DB099801E055
:10471000099840420C900D9840430D900C984043EE
:104720000C90DDE90C100844059004F0BEFFCDE9C3
:10473000060104F02FFFCDE9080104F089FF80B2E3
:104740000E900E9805F014FB09900F9805F010FBE1
:104750000890099905F0F6F90B900B9805F064F9AB
:104760004FF06632FE4BCDE9080104F0B1FF0DD3E6
:104770000B9805F059F9FB4AFB4BCDE9080105F010
:1047800037F803D30F9808B10E98E8BB00201090BB
:10479000F6484088143880B20990F44800881438EC
:1047A00080B24FF6FF7208900999FFF74CFC4FF466
:1047B000784214210846FFF746FCED490B9805F0B6
:1047C000EBFA089005F09CFA80B211A90990C9890A
:1047D000BDF8502011AB5B89CDE90132CDE9031062
:1047E000BDF84C00009011A8C0880890BDF84800A2
:1047F0000790BDF846000690BDF84400059006A954
:104800000EC9FFF786FD81E2FFE7BDF84400BDF861
:104810004C10401A0990002801DB099801E0099822
:1048200040420D90BDF8461011A84089081A099021
:10483000002801DB099801E0099840420C900D988E
:1048400040430D900C9840430C90DDE90C10084457
:10485000059004F02AFFCDE9060104F09BFECDE9A6
:10486000080104F0F5FE80B20F90BDF84800BDF8D5
:104870005010401A0990002801DB099801E00998BE
:1048800040420D9011A8C188C089081A09900028DB
:1048900001DB099801E0099840420C900D984043D3
:1048A0000D900C9840430C90DDE90C1008440590E5
:1048B00004F0FBFECDE9060104F06CFECDE9080131
:1048C00004F0C6FE80B20E900E9805F051FA0990E1
:1048D0000F9805F04DFA0890099905F033F90B90FF
:1048E0000B9805F0A1F84FF066329D4BCDE9080119
:1048F00004F0EEFE09D30B9805F096F8994A9A4B0E
:10490000CDE9080104F074FF3ED2002010909748D2
:104910004088143880B2099094480088143880B2D6
:104920004FF6FF7208900999FFF78DFB4FF478421C
:1049300014210846FFF787FB8D490B9805F02CFAE8
:10494000089005F0DDF980B20146099011A8C289EE
:10495000BDF8500011AB5B89CDE90130CDE90321F1
:10496000BDF84C00009011A8C0880890BDF8480020
:104970000790BDF846000690BDF84400059006A9D2
:104980000EC9FFF7C6FCC1E1BDF84800BDF84C10E8
:10499000401A0990002801DB099801E0099840427B
:1049A0000D9011A8C1884089081A0990002801DBE0
:1049B000099801E0099840420C900D9840430D90F1
:1049C0000C9840430C90DDE90C100844059004F06D
:1049D0006CFECDE9060104F0DDFDCDE9080104F02F
:1049E00037FE80B20F90BDF84400BDF85010401A59
:1049F0000990002801DB099801E0099840420D90D8
:104A0000BDF8461011A8C089081A0990002801DBDA
:104A1000099801E0099840420C900D9840430D9090
:104A20000C9840430C90DDE90C100844059004F00C
:104A30003CFECDE9060104F0ADFDCDE9080104F02E
:104A400007FE80B20E900E9805F092F909900F982B
:104A500005F08EF90890099905F074F80B900B9801
:104A600004F0E2FF4FF066323D4BCDE9080104F05F
:104A70002FFE09D30B9804F0D7FF3A4A3A4BCDE901
:104A8000080104F0B5FE3ED200201090374840885F
:104A9000143880B2099035480088143880B24FF637
:104AA000FF7208900999FFF7CEFA4FF4784214216B
:104AB0000846FFF7C8FA2E490B9805F06DF90890E3
:104AC00005F01EF980B20246099011A8C089BDF810
:104AD000501011AB5B89CDE90131CDE90302BDF87E
:104AE0004C00009011A8C0880890BDF848000790BD
:104AF000BDF846000690BDF84400059006A90EC911
:104B0000FFF707FC02E1BDF84800BDF84410401A69
:104B1000079005F015F90990144800882838079087
:104B200005F00EF90890099905F00CF81149886113
:104B3000BDF84800BDF844100844049005F000F9A1
:104B400005900C48806901460490059805F024F909
:104B5000079006480088059005F00AF906900BE0DA
:104B60006666EE3FCDCCCCCCCCCCF03F4A070020E3
:104B70000000C84228000020079905F0D9F94FF03D
:104B80008041089004F0DEFF099005F09DF800B226
:104B90007B49088411A84089BDF84610401A079047
:104BA00005F0CEF80990774840882838079005F03E
:104BB000C7F80890099904F0C5FF7149C86111A8A8
:104BC0004089BDF846100844049005F0B9F80590F6
:104BD0006B48C06901460490059805F0DDF8079020
:104BE00068484088059005F0C3F80690079905F0DD
:104BF0009FF94FF08041089004F0A4FF099005F060
:104C000063F800B25E49488408468069079005F061
:104C10005BF80890002801DB089801E00898404202
:104C200002280DDC5648C069079005F04DF8099040
:104C3000002801DB099801E00998404202283ADD8A
:104C4000002010904F484088143880B209904D4899
:104C50000088143880B24FF6FF7208900999FFF768
:104C6000F2F94FF4784214210846FFF7ECF90120DD
:104C700045A310221A2100902820FBF709FE404886
:104C800090F8240008B9012000E000203C4981F898
:104C90002400084690F8240030B190203F49087065
:104CA000D0203F49087005E0D0203C490870902092
:104CB0003B4908702AE01F203A4908804FF6FF70F0
:104CC000FEF768FE012038A310226E2100902320F9
:104CD000FBF7DEFD4FF47A7003F0C4F8FFF783FAB8
:104CE0004FF6FF70FEF756FE15B000BD00BF0A205C
:104CF00003F0B8F80A98401C80B20A900A98B0F500
:104D00007A7F02DDFFF7B9FA02E000BFFFF7E7BBE9
:104D100000BF00BFE8E708B50121042001F08CFDC9
:104D20000E20ADF8000010208DF8030003208DF850
:104D300002006946224801F0C3FA4FF4C050ADF8B2
:104D4000000048208DF8030069461D4801F0B8FABC
:104D50000B491231881EFFF703F9FEF7A9FFFFF791
:104D60008CFA08B1002008BD4FF6FF70FEF712FE66
:104D7000FFF770FBFFF737FAFFF77FFA0120F2E742
:104D8000280000204A0700205450204E656564200A
:104D9000726561646A757374210000005000002020
:104DA0005100002020000020546F75636820536379
:104DB0007265656E2041646A757374204F4B2100E3
:104DC00000080140024600BF108900F002000028E0
:104DD000FAD0918100BF108900F001000028FAD0BC
:104DE0009089C0B2704702884FF6C7731A4002809C
:104DF000012902D10288028003E0028842F02002E9
:104E00000280028842F040020280704700B587B0FD
:104E10000121092001F010FD4FF42040ADF80400FD
:104E200003208DF8060018208DF8070001A91C4802
:104E300001F046FA4FF48040ADF8040048208DF8A8
:104E4000070003208DF8060001A9154801F038FA83
:104E50000121880301F0FDFC0020ADF808004FF4AB
:104E60008270ADF80A000020ADF80C00ADF80E001D
:104E7000ADF810004FF40070ADF812000020ADF84E
:104E80001400ADF816000720ADF8180002A9054877
:104E900001F05CFD0121034801F0FDFD07B000BDFC
:104EA000000C01400038004008B50121082001F045
:104EB000C3FCC020ADF8000010208DF803000320D3
:104EC0008DF8020069468D4801F0FAF9C0218B483F
:104ED00001F0A3FA08BD10B58848006820F07040C2
:104EE000864908600846006840F04050086001208C
:104EF000834908608349C1F89801042002F0CEFF7D
:104F000000207F490860042002F0C8FF00207D498E
:104F1000C1F8980110BD10B57848006820F07040C5
:104F2000764908600846006840F04050086000205C
:104F30007349091F08607349C1F89C01042002F0FD
:104F4000ADFF01206E49091F08606E49C1F89C0140
:104F5000042002F0A3FF10BD10B5002467480068CC
:104F600020F07040654908600846006840F0004045
:104F7000086001206249086002F090FF0120614949
:104F8000C1F8980102F08AFF07E0601CC4B2FA2C55
:104F900003DDFFF7C0FF012010BD594880380068CD
:104FA0000028F2D15649091F086000BFF4E710B588
:104FB00000205349091F08605048006820F07040E5
:104FC0004E4908600846006840F0405008600020E4
:104FD0004C49C1F89C01022002F060FF01204849C1
:104FE000091F0860022002F059FF00204549C1F85E
:104FF000980110BD10B500204149091F08603F48C5
:10500000006820F070403D4908600846006840F0A4
:105010004050086001203B49C1F89C01022002F089
:105020003DFF01203649091F0860022002F036FFCB
:1050300000203449C1F8980110BD70B504462F48CE
:10504000006820F070402D4908600846006840F074
:105050004050086000202A49091F0860002517E019
:10506000E009274908606006040E022002F016FFDE
:1050700001202449C1F89801022002F00FFF00200E
:105080001F49091F0860022002F008FF681CC5B212
:10509000082DE5DB70BD70B5054600241748006893
:1050A00020F07040154908600846006840F0004054
:1050B0000860002617E000201149091F086002203F
:1050C00002F0ECFE01200F49C1F898016006040EC1
:1050D0000B488038006808B1601CC4B2012002F09F
:1050E000DDFE701CC6B2082EE5DB15B9FFF782FFA6
:1050F00001E0FFF75CFF204670BD0000000C01409E
:105100009C8121420080214208B50121102001F03C
:1051100093FB4FF40050ADF8000010208DF8030011
:1051200003208DF802006946044801F0C9F84FF4E5
:105130000051024801F071F908BD00000010014063
:1051400010B586B004460121042001F075FB012151
:10515000880301F071FB4FF40070ADF814001820C3
:105160008DF8170003208DF8160005A9694801F095
:10517000A7F84FF48060ADF8140004208DF81700F4
:1051800005A9644801F09CF801940020ADF80800DE
:10519000ADF80A00ADF80C00ADF810000C20ADF829
:1051A0000E0001A95C4801F074FD01215A4801F08C
:1051B000FCFD06B010BD10B586B0044601210820E4
:1051C00001F03AFB0121880401F043FB4FF48060B9
:1051D000ADF8140018208DF8170003208DF8160084
:1051E00005A94E4801F06CF84FF40060ADF81400CA
:1051F00004208DF8170005A9484801F061F80194D2
:105200000020ADF80800ADF80A00ADF80C00ADF8CC
:1052100010000C20ADF80E0001A9414801F039FD45
:1052200001213F4801F0C1FD06B010BD00BF70472D
:1052300070B504460D46E1B2374801F023FE00BFC9
:105240008021354801F08CFE0028F9D0204670BD41
:1052500010B5044600BF20212F4801F081FE002830
:10526000F9D02D4801F012FE10BD0FB438B505A8D5
:1052700000902C48009A049902F030FE0020009023
:10528000284802F04DFF054600BF2348008800F083
:1052900040000028F9D000240CE02248005D1E499F
:1052A000091D088000BF1C48008800F0400000284D
:1052B000F9D0641CAC42F0D338BC5DF814FB0FB4D9
:1052C00038B505A800901848009A049902F006FE27
:1052D00000200090144802F023FF054600BF10484C
:1052E000008800F040000028F9D000240CE00E48AF
:1052F000005D0B49091D088000BF0948008800F0C7
:1053000040000028F9D0641CAC42F0D338BC5DF8F2
:1053100014FB00000008014000380140000C01406F
:105320000048004058070020580800200BE010F803
:10533000011B2D4A118000BF2B49091F098801F06C
:1053400040010029F8D001780029F0D1704710B54C
:1053500026A0FFF7EBFFC82002F084FD27A0FFF78F
:10536000E5FFC82002F07EFD26A0FFF7DFFFC82082
:1053700002F078FD27A0FFF7D9FFC82002F072FDE8
:105380002EA0FFF7D3FFC82002F06CFD2EA0FFF780
:10539000CDFFC82002F066FD2FA0FFF7C7FF4FF436
:1053A000FA7002F05FFD10BD70B504460D46294647
:1053B0002FA0FFF784FF642002F054FD2046FFF782
:1053C0007EFF70BD70B50446204602F0A9FE05467A
:1053D000294627A0FFF773FF642002F043FD204613
:1053E000FFF76DFF70BD00000448004041542B5290
:1053F0004553544F52450D0A0000000041540D0A18
:105400000000000041542B43574D4F44453D320DA1
:105410000A00000041542B43575341505F44454616
:105420003D2265737038323636222C2231323334C5
:1054300035363738222C352C340D0A0041542B4395
:10544000494653520D0A000041542B4349504D55D3
:10545000583D310D0A00000041542B43495053453B
:10546000525645523D312C383038300D0A0000007C
:1054700041542B43495053454E443D302C25640D37
:105480000A00000008B50121042001F0D5F9102020
:10549000ADF8000003208DF8020010208DF8030005
:1054A0006946284800F00CFF0121042001F0C4F9EE
:1054B0002020ADF8000003208DF8020010208DF8A8
:1054C000030069461F4800F0FBFE0121042001F0A3
:1054D000B3F98020ADF8000003208DF80200102001
:1054E0008DF803006946174800F0EAFE0121042008
:1054F00001F0A2F94020ADF8000004208DF803006F
:105500006946104800F0DCFE0121042001F094F906
:105510000120ADF8000003208DF8020010208DF866
:1055200003006946084800F0CBFE08BD10B5FFF740
:10553000A9FF0121044800F070FF1021014800F08C
:105540006CFF10BD00080140000C014070B504461E
:10555000002520E004F0800020B18021FE4800F00A
:105560005CFF03E08021FC4800F059FF022002F0BC
:1055700095FC2021F84800F052FF022002F08EFC3A
:105580002021F54800F049FF022002F087FC600668
:10559000040E681CC5B2082DDCDB70BD70B500259B
:1055A0001CE06006040E2021EB4800F038FF0220CA
:1055B00002F074FC4021E84800F015FF012801D1F9
:1055C00044F00104022002F069FC2021E24800F0CE
:1055D00024FF022002F062FC681CC5B2082DE0DB4B
:1055E000204670BD70B504467E2000EA440040F0BD
:1055F00080051021D84800F012FF2846FFF7A6FFCB
:10560000FFF7CCFF06461021D34800F006FF3046D6
:1056100070BD70B504460D467E2000EA4406102198
:10562000CD4800F0FCFE3046FFF790FF2846FFF71C
:105630008DFF1021C84800F0F0FE70BD70B5054622
:105640000C462846FFF7CEFF064646EA04012846E8
:10565000FFF7DFFF70BD70B505460C462846FFF723
:10566000C1FF064626EA04012846FFF7D2FF70BDB7
:1056700010B51420FFF7B6FF044604F0030018B974
:1056800003211420FFF7DAFF10BD10B50321142009
:10569000FFF7E1FF10BD10B50121B04800F0BDFEDD
:1056A000012002F0FBFB0121AC4800F0B8FE012014
:1056B00002F0F4FB0121A94800F0AFFE012002F046
:1056C000EDFB0F210120FFF7A4FF00BF0120FFF732
:1056D00089FF00F010000028F8D1012002F0DEFB65
:1056E0003D211120FFF795FF1E212D20FFF791FF8F
:1056F00000212C20FFF78DFF8D212A20FFF789FF45
:105700003E212B20FFF785FF40211520FFF781FF69
:1057100010BD10B50446412C24D108210846FFF7DE
:105720009AFF3D211120FFF774FF86211720FFF714
:1057300070FF7F212620FFF76CFF1E212D20FFF731
:1057400068FF00212C20FFF764FF8D212A20FFF73E
:1057500060FF3E212B20FFF75CFF022002F09EFB42
:10576000FFF786FF10BD2DE9FE4F0646884691469D
:105770009A46DDF830B0BB200290002001900090E6
:105780000C2E06D00E2E09D1122001901020009070
:1057900005E0772001903020009000E000BF00BFBE
:1057A000019840F080010220FFF733FF80210420A0
:1057B000FFF751FF00210120FFF72BFF80210A2076
:1057C000FFF73CFF002505E018F805100920FFF75A
:1057D00020FF6D1C4D45F7D331460120FFF719FF1F
:1057E0000C2E03D180210D20FFF728FF4FF47A758E
:1057F00000BF0420FFF7F6FE04466D1E35B104F02D
:10580000010018B9009820400028F2D080210D2016
:10581000FFF721FF95B30620FFF7E4FE00F01B0021
:1058200068BB262002900198204000F0010008B1DA
:10583000CC2002900C2E24D10A20FFF7D3FE044680
:105840000C20FFF7CFFE00F007072FB1601E07EB1B
:10585000C000CBF8000002E0E000CBF8000004B983
:105860000124122C00DD1224002505E00920FFF799
:10587000B9FE0AF805006D1CA542F7D301E0BB2074
:10588000029080210C20FFF7D9FE00210120FFF7B4
:10589000C0FE0298BDE8FE8F70B588B005460C4684
:1058A00008210846FFF7D7FE07210D20FFF7B1FEBC
:1058B00003211420FFF7C2FE8DF80C5002A803ABA1
:1058C000012203A900900C20FFF74DFF0646262E6B
:1058D00009D10298102806D19DF80C0020709DF87F
:1058E0000D00607000E0BB26304608B070BDF0B51A
:1058F00087B00546002708210846FFF7ACFE0021C7
:105900000D20FFF786FE80210E20FFF7A4FE9320D6
:105910008DF8080020208DF8090001A802AB0222B2
:1059200002A900900C20FFF71EFF0646262E10D17C
:10593000002407E002A8005D285502A8005D47404A
:10594000601CC4B2042CF5DB02A8005DB84200D094
:10595000BB2680210E2003E000080140000C01401E
:10596000FFF76CFE304607B0F0BD2DE9F041074669
:105970008846154604210520FFF76DFE0021012011
:10598000FFF747FE80210A20FFF758FE002405E0BC
:10599000395D0920FFF73DFE601CC4B24445F7DBCA
:1059A00003210120FFF735FEFF2400BF0520FFF78C
:1059B00019FE0646601EC4B21CB106F004000028A1
:1059C000F4D02220FFF70EFE28702120FFF70AFEF8
:1059D0006870BDE8F08170B588B0054693208DF8F9
:1059E0000C0070208DF80D0000208DF812000024AE
:1059F0000BE0295D03AAA01C11549DF81200295D3B
:105A000048408DF81200601CC4B2042CF1DB0DF18B
:105A10001302072103A8FFF7A8FF08210846FFF794
:105A20001AFE02A803AB092203A900900C20FFF77D
:105A30009AFE0646262E03D10298182800D100E0CF
:105A4000BB26304608B070BD2DE9F04387B006464E
:105A50000F46904699468DF808608DF8097000242D
:105A600006E018F8041002AAA01C1154601CC4B26D
:105A7000062CF6DB002407E019F8041002AA04F152
:105A800008001154601CC4B2062CF5DB01A802AB5F
:105A90000C2202A900900E20FFF765FE0546262D78
:105AA00005D10820FFF79EFD00F0080000B9BB25D6
:105AB000284607B0BDE8F083F0B587B006460F462C
:105AC000A0208DF808008DF809600DF10A0202216E
:105AD00002A8FFF74AFF01A802AB042202A9009026
