:020000040800F2
:10000000980600209D0A00080D0300080F03000851
:1000100013030008170300081B030008000000007A
:100020000000000000000000000000001F030008A6
:100030002103000800000000230300082503000836
:10004000B70A0008B70A0008B70A0008B70A00088C
:10005000B70A0008B70A0008B70A0008B70A00087C
:10006000B70A0008B70A0008B70A0008B70A00086C
:10007000B70A0008B70A0008B70A0008B70A00085C
:10008000B70A0008B70A0008B70A0008B70A00084C
:10009000B70A0008B70A0008B70A0008B70A00083C
:1000A000B70A0008B70A0008B70A0008B70A00082C
:1000B000B70A0008B70A0008B70A0008B70A00081C
:1000C000B70A0008B70A0008B70A0008B70A00080C
:1000D000B70A0008130A0008B70A0008510600080A
:1000E000B70A0008B70A0008B70A0008DFF80CD002
:1000F00001F052FB004800470D020008980600205E
:1001000070B50C46114604E0655C8E1A85554D1C91
:10011000E9B2D5188D42F7DC0025C55470BD10B585
:1001200051A1534801F0BEFA04461F22214651480E
:1001300001F0CAFA192306224E490846FFF7E0FFEC
:10014000032300224B494C48FFF7DAFF0B2305221B
:1001500048494948001DFFF7D3FF082311224549AC
:1001600045481030FFF7CCFF0223002242491031EE
:1001700001F10800FFF7C4FF062302223E491031B7
:100180000846FFF7BDFF3C49091D3CA001F078FB84
:1001900039493DA001F074FB3748183001F0A0FA4E
:1001A00000F10804344A103221463AA001F068FBFD
:1001B0004FF47A7000F0A5FB00F061FA10BD10B5A5
:1001C00000F062FB4FF4A06001F0FEF94FF416500E
:1001D00000F0D3FB4FF4E13000F0EAF900F0CAF987
:1001E00006E030A001F04CFB4FF47A7000F089FB80
:1001F00000F0BBFA0028F4D140F6B83000F081FBE3
:1002000000F08FFA2BA001F03BFB10BDFFF7D7FFEA
:100210004FF47A7000F075FB24E000F030FA2A48C1
:10022000007860B929A000F038FA2FA001F028FB6F
:1002300040F2DC5000F065FB0120234908702248A1
:10024000007801280ED100201F49087008492AA013
:1002500001F016FBFFF763FF40F2DC5000F051FBAA
:1002600000F05FFAD9E70000446174650000000007
:100270009D0000203C000020820000204461746545
:100280003A202025730D0A005765656B3A2020251A
:10029000730D0A0054696D653A2020256425730D9D
:1002A0000A0D0A00496E6974206572726F720D0A38
:1002B0000000000047455420687474702073746116
:1002C00072740D0A000000001400002047455420FD
:1002D000687474703A2F2F6367692E696D2E71717F
:1002E0002E636F6D0000000053656E6420687474A7
:1002F00070204F4B0D0A000055617274335F4275D8
:1003000066203D2025730D0A00000000704700BFE5
:10031000FEE700BFFEE700BFFEE700BFFEE7704755
:1003200070477047704700000CB5002001900090A6
:100330006C48006840F480306A49086000BF694832
:10034000006800F4003000900198401C0190009873
:1003500018B90198B0F5A06FF1D16248006800F4B7
:10036000003010B10120009001E0002000900098C2
:10037000012843D15C48006840F010005A490860E9
:100380000846006820F0030008600846006840F056
:100390000200086053484068524948600846406877
:1003A00048600846406840F48060486008464068FD
:1003B00020F47C1048600846406840F4E81048602B
:1003C0000846006840F08070086000BF454800683B
:1003D00000F000700028F9D04248406820F0030087
:1003E000404948600846406840F00200486000BF4D
:1003F0003C48406800F00C000828F9D10CBD10B54D
:10040000FFF792FF10BD10B53648006840F00100BC
:10041000344908600846406834490840314948601A
:1004200008460068324908402E49086008460068BE
:1004300020F4802008600846406820F4FE004860F0
:100440004FF41F008860FFF7DAFF4FF00060294982
:10045000086010BD10B5002100200022214B5B6810
:1004600003F00C0121B1042906D0082928D107E0A6
:10047000214B224C236027E01F4B204C236023E0BC
:10048000184B5B6803F47010164B5B6803F4803202
:10049000022303EB904022B9194B4343174C2360CE
:1004A0000DE0104B5B6803F4003323B1144B43435E
:1004B000124C236003E0104B4343104C236003E0D5
:1004C0000D4B0E4C236000BF00BF064B5B68C3F3AF
:1004D00003130C4CE15C094B1B68CB40074C2360B9
:1004E00010BD000000100240002002400000FFF894
:1004F000FFFFF6FE08ED00E000127A000000002089
:1005000000093D000400002008B50121052000F08D
:10051000F3FD0121234800F004FC4FF41C40ADF82A
:10052000000010208DF8030003208DF802006946BA
:100530001D4800F025FB4FF41C411B4800F0CDFB8B
:1005400008BD08B50121082000F0D6FD4FF4405049
:10055000ADF8000010208DF8030003208DF8020094
:100560006946124800F00CFB4FF440510F4800F070
:10057000B4FB08BD08B50121082000F0BDFDE02056
:10058000ADF8000010208DF8030003208DF8020064
:100590006946064800F0F4FAE021044800F09DFBAB
:1005A00008BD00000002300000080140000C0140BE
:1005B00010B586B004460121082000F09DFD012100
:1005C000880400F0A6FD4FF48060ADF8140003200D
:1005D0008DF8160018208DF8170005A97E4800F048
:1005E000CFFA4FF40060ADF8140004208DF8170026
:1005F00005A9794800F0C4FA27208DF800000020F2
:100600008DF8010003208DF8020001208DF8030011
:10061000684600F0DEFF01940020ADF80800ADF858
:100620000A00ADF80C00ADF810000C20ADF80E007B
:1006300001A96A4800F007FE012240F225516748EF
:1006400000F099FE0121654800F089FE06B010BD5A
:1006500010B50024614800F0F3FEC4B2604861495F
:10066000097844545F480078401C5E490870084689
:100670000078B0F5967F01DB0020087010BD0020E7
:1006800004E00021564A1154411C88B2B0F5967F0F
:10069000F7DB0021534A1170704710B504460BE098
:1006A00000BF40214D4800F035FF0028F9D014F874
:1006B000011B4A4800F0C0FE20780028F0D110BD90
:1006C00010B50446FFF7DBFF2046FFF7E6FF46A024
:1006D000FFF7E3FF10BD10B504462146404800F087
:1006E000E1FF08B1012010BD0020FCE72DE9F04139
:1006F00080460C4615461E4600270EE04046FFF792
:10070000DFFFB0B200F0FDF82046FFF7E4FF10B1C4
:100710000120BDE8F081781CC7B2AF42EEDB0020BB
:10072000F7E710B56423032230A131A0FFF7DEFF05
:10073000044614B96FF0020010BD642303222BA1FC
:1007400033A0FFF7D3FF044614B96FF00300F3E7BB
:100750006423032225A138A0FFF7C8FF044614B97B
:100760006FF00400E8E70020E6E710B564230322F9
:100770001EA136A0FFF7BAFF044614B94FF0FF30B0
:1007800010BD6423032219A132A0FFF7AFFF044676
:1007900014B96FF00100F3E76423032213A131A021
:1007A000FFF7A4FF044614B96FF00200E8E7002049
:1007B000E6E710B50446322303222DA12DA0FFF752
:1007C00095FFC82000F09DF82046FFF766FF6420E3
:1007D00000F097F810BD0000000C014000480040F8
:1007E0009D000020150000200D0000004F4B000070
:1007F00041542B43574A41503D22485541574549A2
:10080000222C227171717171717171220D0A0000B7
:1008100041542B43495053544152543D2254435068
:10082000222C226367692E696D2E71712E636F6DA4
:10083000222C38300D0A000041542B4349505345B7
:100840004E443D3130300D0A0000000041540D0A85
:100850000000000041542B43574D4F44453D330D9C
:100860000A00000041542B5253540D0A00000000AE
:100870003E00000041542B43495053454E443D3007
:100880002C31340D0A00000010B56FF0040000F0A8
:10089000EAFE2E4800682E49B0FBF1F02D490870A1
:1008A0000846007800EB4001C1EBC0104FF6FF7125
:1008B00001EAC0002849088010BD0146254A127887
:1008C0004A434FF0E0235A6100229A611A461269A6
:1008D00042F001021A6100BF4FF0E022106900F0FF
:1008E00001021AB100F48032002AF5D04FF0E02264
:1008F000126922F001024FF0E0231A6100229A618E
:1009000070470146144A12884A434FF0E0235A6167
:1009100000229A611A46126942F001021A6100BF70
:100920004FF0E022106900F001021AB100F48032A9
:10093000002AF5D04FF0E022126922F001024FF0B8
:10094000E0231A6100229A61704700000000002035
:1009500000127A001600002018000020014600BF97
:10096000704700BF494A128802F04002002AF9D0BD
:10097000C2B2464B1B1D1A80704710B586B00446A4
:10098000012144F2040000F0B7FB4FF40070ADF811
:10099000140003208DF8160018208DF8170005A903
:1009A0003B4800F0EDF84FF48060ADF814000420EF
:1009B0008DF8170005A9364800F0E2F825208DF8DB
:1009C000000003208DF801008DF8020001208DF851
:1009D0000300684600F0FDFD01940020ADF808001A
:1009E000ADF80A00ADF80C00ADF810000C20ADF821
:1009F0000E0001A9254800F026FC012240F22551F5
:100A0000224800F0B8FC0121204800F0A8FC06B004
:100A100010BD10B540F225511C4800F091FD10B3F7
:100A20001A4800F00DFDC4B21A48008800F40040D6
:100A3000C8B91848008800F4804060B10A2C03D07F
:100A400000201449088020E01248008840F400404B
:100A50001049088019E00D2C06D10E48008840F49A
:100A600080400C49088010E00A480088C0F30D005F
:100A700009490C5407480088401C0649088008466C
:100A80000088C72801DD0020088010BD0038014023
:100A90000008014020000020C901002006488047CE
:100AA00006480047FEE7FEE7FEE7FEE7FEE7FEE753
:100AB000FEE7FEE7FEE7FEE707040008ED0000089A
:100AC00010B50446CC48844208D10121042000F02E
:100AD0002DFB0021042000F029FB46E0C74884429A
:100AE00008D10121082000F021FB0021082000F09E
:100AF0001DFB3AE0C248844208D10121102000F0D9
:100B000015FB0021102000F011FB2EE0BD488442AF
:100B100008D10121202000F009FB0021202000F055
:100B200005FB22E0B848844208D10121402000F0B2
:100B3000FDFA0021402000F0F9FA16E0B3488442A3
:100B400008D10121802000F0F1FA0021802000F07E
:100B5000EDFA0AE0AE48844207D10121801500F089
:100B6000E5FA0021A01500F0E1FA10BD10B5012151
:100B7000084600F0DBFA0021012000F0D7FA10BD92
:100B80002DE9F04102460025002600200023002424
:100B9000002791F803C00CF00F0591F803C00CF08A
:100BA000100CBCF1000F03D091F802C04CEA05050F
:100BB00091F800C0BCF1000F31D0146800202BE088
:100BC0004FF0010C0CFA00F3B1F800C00CEA030678
:100BD0009E4220D183004FF00F0C0CFA03F7BC4368
:100BE00005FA03FC4CEA040491F803C0BCF1280F99
:100BF00006D14FF0010C0CFA00FCC2F814C00AE058
:100C000091F803C0BCF1480F05D14FF0010C0CFA6C
:100C100000FCC2F810C0401C0828D1D31460B1F801
:100C200000C0BCF1FF0F34DD546800202EE000F15D
:100C3000080C4FF0010808FA0CF3B1F800C00CEAF8
:100C400003069E4221D183004FF00F0C0CFA03F7EC
:100C5000BC4305FA03FC4CEA040491F803C0BCF160
:100C6000280F05D100F1080C08FA0CF8C2F814801E
:100C700091F803C0BCF1480F07D100F1080C4FF008
:100C8000010808FA0CF8C2F81080401C0828CED3DE
:100C90005460BDE8F0814FF6FF7101800221817040
:100CA0000421C17070470246002093680B400BB1CD
:100CB000012000E0002070470146886880B270473C
:100CC00002460020D3680B400BB1012000E0002059
:100CD00070470146C86880B2704701617047416142
:100CE00070470AB1016100E041617047C16070471F
:100CF0004FF480320A438261816182618269826934
:100D0000704702460020434B18684FF68073184026
:100D100040EA021008433F4B186070473E49C861E3
:100D20007047F0B50A46002300240021002500F09A
:100D30000046B6F1004F02D1364EF16901E0354E62
:100D40007168C0F3034583B200F44016B6F5401F46
:100D500008D121F070612F4E766826F070662D4F15
:100D60007E6012E000F48016B6F5801F06D10326DF
:100D700006FA05F4A14341F0706106E0460D360124
:100D800003FA06F6B14341F0706122B1460D360117
:100D900003FA06F6314300F00046B6F1004F02D1E7
:100DA0001C4EF16101E01B4E7160F0BD30B50022B8
:100DB0008B071C0F0F2303FA04F2164B08338C1019
:100DC00053F824309343134C08348D1044F82530E5
:100DD00023468C1053F824308C07240F00FA04F4B7
:100DE00023430C4C08348D1044F8253030BD0A499B
:100DF000DC3108607047000000080140000C014031
:100E0000001001400014014000180140001C014086
:100E1000002001400000014000002042DF4800683F
:100E200040F00100DD49086008464068DC490840A0
:100E3000DA49486008460068DA490840D74908603E
:100E40000846006820F4802008600846406820F4C6
:100E5000FE0048604FF41F0088607047CF49096862
:100E600021F48031CD4A11601146096821F48021B6
:100E70001160B0F5803F03D0B0F5802F0ED106E0B1
:100E8000C649096841F48031C44A116007E0C3498A
:100E9000096841F4A021C14A116000E000BF00BF11
:100EA000704710B501460022002300204A11012A94
:100EB00002D1BA4C236806E0022A02D1B74C236A59
:100EC00001E0B64C636A01F01F02012494401C400B
:100ED0000CB1012000E0002010BD38B500200090CA
:100EE0000024002500BF3120FFF7DBFF05460098F6
:100EF000401C00900098B0F5A06F01D0002DF2D0FA
:100F00003120FFF7CEFF08B1012400E00024204685
:100F100038BD01460020A14A106820F0F80040EAE0
:100F2000C10010607047A049086070470246002069
:100F30009A4B586820F47C1042EA01031843974BFF
:100F40005860704798490866704701460020934AE8
:100F5000506820F003000843506070478F48406895
:100F600000F00C007047014600208C4A506820F0C9
:100F7000F00008435060704701460020874A5068DF
:100F800020F4E06008435060704701460020834A27
:100F9000506820F4605040EAC1005060704729B1A9
:100FA0007E4A527A02437D4B5A7204E07B4A527A5F
:100FB00082437A4B5A7270477B49D8310860704738
:100FC00001460020754A506820F4404008435060B4
:100FD00070470021714A20321170704A82F8201047
:100FE000012802D004280AD104E001216B4A2032F2
:100FF000117005E00521694A2032117000E000BF40
:1010000000BF70476949086070476449096A014335
:10101000624A11627047654944390860704730B5CB
:1010200000210022002400235C4D6D6805F00C01B6
:1010300021B1042905D0082923D105E05C4D0560C4
:1010400022E05B4D05601FE0544D6D6805F47012A1
:10105000524D6D6805F48034022505EB92421CB9AF
:10106000544D554305600BE04C4D6D6805F400355B
:101070001DB1504D5543056002E04D4D554305608F
:1010800002E04B4D056000BF00BF444D6D6805F0A8
:10109000F0010909484D6B5C0568DD4045603F4D36
:1010A0006D6805F4E061090A434D6B5C4568DD40FD
:1010B00085603A4D6D6805F46051C90A3E4D6B5C20
:1010C0004568DD40C560354D6D6805F44041890BCC
:1010D0003A4D6B5CC568B5FBF3F5056130BD29B1D0
:1010E0002E4A526902432D4B5A6104E02B4A526941
:1010F00082432A4B5A61704729B1284A92690243B8
:10110000264B9A6104E0254A92698243234B9A61F7
:10111000704729B1214AD2690243204BDA6104E0C9
:101120001E4AD26982431D4BDA61704729B11B4ABE
:10113000D2680243194BDA6004E0184AD26882434D
:10114000164BDA60704729B1144A12690243134BF7
:101150001A6104E0114A12698243104B1A61704708
:1011600012494039086070470F49C86470470B49FD
:10117000C87170470948406A40F08070074948626A
:10118000704701460020054A92680A400AB10120D2
:1011900000E000207047014988727047001002404B
:1011A0000000FFF8FFFFF6FE0000424280044242CA
:1011B00000127A0000093D002200002032000020C9
:1011C00010B50446FB48844209D101218803FFF78A
:1011D000ADFF00214FF48040FFF7A8FF32E0F64852
:1011E000844209D101214804FFF7ADFF00214FF4EB
:1011F0000030FFF7A8FF25E0F048844209D1012123
:101200008804FFF7A0FF00214FF48020FFF79BFF29
:1012100018E0EB48844209D10121C804FFF793FF8D
:1012200000214FF40020FFF78EFF0BE0E5488442D9
:1012300008D101210805FFF786FF00214FF4801037
:10124000FFF781FF10BD2DE9F04786B005460E4639
:101250000024A24600BFA1460027B08900B100BF0C
:101260002F462C8A4CF6FF700440F08804432C82F1
:10127000AC894EF6F3100440B08831890843718977
:1012800008430443AC81AC8A4FF6FF400440B08968
:101290000443AC8201A8FFF7C2FEC648874202D1D0
:1012A000DDF810A001E0DDF80CA0A88900F40040F2
:1012B00040B10AEBCA0000EB0A1031684900B0FBEC
:1012C000F1F807E00AEBCA0000EB0A103168890068
:1012D000B0FBF1F86420B8FBF0F0040120096421B0
:1012E00001FB1089A88900F4004040B1322000EBD6
:1012F000C900B0FBF1F000F00700044308E0322021
:1013000000EB09106421B0FBF1F000F00F00044382
:101310002C8106B0BDE8F0874FF416510160002122
:101320008180C18001810C21418100218181704730
:1013300010B502460020108A4FF2FF0318400B88B8
:101340004C8823438C882343CC8823431843108242
:1013500010BD0021018041808180C180704721B192
:10136000828942F40052828104E082894DF6FF7343
:101370001A4082817047F0B50346002400260025FC
:10138000002040F66A17B94200D100BF1846C1F3E9
:10139000421401F01F06012707FA06F5012C01D1BE
:1013A0000C3004E0022C01D1103000E014301AB1EE
:1013B00007682F43076002E00768AF430760F0BD8E
:1013C0001AB1838A0B43838202E0838A8B43838230
:1013D0007047028A4FF6F0731A400282028A0A436B
:1013E0000282704782894FF2FF731A40828182899C
:1013F0000A438281704721B1828942F002028281D0
:1014000004E082894FF6FD731A4082817047028A98
:101410004FF6DF731A400282028A0A430282704743
:1014200021B1028A42F48042028204E0028A4BF631
:10143000FF731A4002827047C1F30802828070472E
:1014400001468888C0F308007047818941F0010196
:1014500081817047028BD2B20283028B42EA012261
:1014600002837047028B02F47F420283028B0A439D
:101470000283704721B1828A42F02002828204E016
:10148000828A4FF6DF731A408282704721B1828AC6
:1014900042F01002828204E0828A4FF6EF731A4013
:1014A0008282704721B1828A42F00802828204E07F
:1014B000828A4FF6F7731A408282704721B182897F
:1014C00042F40042828103E08289C2F30E028281EB
:1014D000704721B1828A42F40062828204E0828AEB
:1014E0004FF2FF731A4082827047828A4FF6FB7375
:1014F0001A408282828A0A438282704721B1828A9C
:1015000042F00202828204E0828A4FF6FD731A40A2
:101510008282704702460020B1F5007F00D100BFF3
:1015200013880B400BB1012000E00020704701F44C
:101530000072B2F5007F00D100BFCA43028070473D
:1015400070B50246002400230025002040F66A16EC
:10155000B14200D100BFC1F3421501F01F030126C3
:1015600006FA03F3012D02D19689334006E0022DDD
:1015700002D1168A334001E0968A33400C120126CC
:1015800006FA04F41688344013B10CB1012000E0CF
:10159000002070BD10B50022002340F66A14A1425D
:1015A00000D100BF0A1201249440A3B2DC4304809E
:1015B00010BD0000003801400044004000480040D9
:1015C000004C00400050004031490143314A116055
:1015D000704770B5002100230F22C47804B32D4C4E
:1015E000246804F4E064C4F5E064210AC1F1040352
:1015F000CA40447804FA03F1847814402143090175
:10160000254C0678A155047804F01F050124AC4050
:1016100005786D11AD0005F1E025C5F8004109E040
:10162000047804F01F050124AC401C4D06787611A7
:1016300045F8264070BD1A4A0A400243154B1B1F4D
:101640001A60704739B1134A121D12680243114BD8
:101650001B1D1A6006E00F4A121D126882430D4BD3
:101660001B1D1A607047042808D14FF0E02109695A
:1016700041F004014FF0E022116107E04FF0E0215A
:10168000096921F004014FF0E02211617047000068
:101690000000FA050CED00E000E400E080E100E06D
:1016A00080FFFF1F30B505462A460B4612F8010B96
:1016B00013F8014B08B1A042F8D01CB1002802D0A9
:1016C0006D1CF1E7284630BD10B5044604E00B78E8
:1016D00000F8013B03B1491C521EF8D2204610BD50
:1016E00070B5064600F0DCF8046805460A220021C1
:1016F000304600F018F82C6070BD30B50B4601463E
:1017000000202022012409E021FA02F59D4205D3A0
:1017100003FA02F5491B04FA02F52844151EA2F14A
:101720000102F1DC30BD2DE9F04791460F468046BD
:101730000446002614F8015B2DB100F03FF8006864
:10174000405DC007F6D12B2D02D02D2D18D0641E80
:101750004A463946204600F035F827B13968A1429B
:1017600001D1C7F8008071054FF002040BD540424B
:10177000002803DD00F094F80460A007BDE8F087BE
:1017800046F48066E4E70028F8DA00F089F804609F
:101790006FF00040F2E70000064C074D06E0E068FD
:1017A00040F0010394E8070098471034AC42F6D3A8
:1017B000FEF7A0FC081B0008281B00080048704723
:1017C000041B00082DE9F05F8246007800271546CB
:1017D0008B460AF10104B946302801D09DB113E0CF
:1017E00014F8010B0127782803D0582801D045B1FF
:1017F0000AE00DB1102D07D10027102514F8010BB8
:1018000002E0082500E00A250026B0460EE005FBB0
:10181000080005FB06F1012701EB10461FFA80F8CE
:10182000B6F5803F00D3B94614F8010B294600F005
:1018300018F80028EBDABBF1000F05D00FB1641ED9
:1018400000E05446CBF80040B9F1000F06D000F09C
:1018500027F802210160C81EBDE8F09F48EA064053
:10186000FAE73A2800D2303820F02002412A01D38A
:10187000A2F13700884201D34FF0FF3070470000DB
:101880000FB4054B10B503A9044A029800F01CF8E8
:1018900010BC5DF814FB0000630900081C00002068
:1018A000004870473800002002E008C8121F08C135
:1018B000002AFAD170477047002001E001C1121FD1
:1018C000002AFBD1704700002DE9FF4F8BB09A46EC
:1018D0000F460546002606E025280BD052460D99F6
:1018E00090476D1C761C28780028F5D10FB0304643
:1018F000BDE8F08F0024A0460122604900E00443C7
:1019000015F8013F203B02FA03F00842F7D128788E
:101910002E2817D115F8010F44F004042A280ED000
:101920006FF02F022878A0F1300109290AD808EBBE
:10193000880102EB410100EB01086D1CF2E757F84A
:10194000048B6D1C287869283ED006DC0028CDD099
:1019500063280BD0642804D136E0732810D0752892
:101960004BD052460D999047761C85E017F8040B32
:101970008DF8000000208DF80100E946012003E009
:1019800057F8049B4FF0FF3061074FF0000401D47B
:101990000AE0641C44450DDA8442FADB19F80410AD
:1019A0000029F6D106E0641C8442FCDB19F804101F
:1019B0000029F8D1264404E019F8010B52460D998C
:1019C0009047641EF8D257E001CF4FF00A0B002871
:1019D00002DA40422D2102E0210504D52B218DF8A9
:1019E0002410012103E0E10705D02021F7E70DF1E4
:1019F000200908910CE00021F9E701CF4FF00A0B14
:101A0000F9E75946FFF779FE01F1300209F8012D97
:101A10000028F6D1ADEB090000F1200B600701D4DE
:101A20004FF00108D84502DDA8EB0B0000E00020D4
:101A30008046002406E009A85246005D0D999047B3
:101A4000641C761C08988442F5DB04E03020524682
:101A50000D999047761CB8F10001A8F10108F5DC5A
:101A600005E019F8010B52460D999047761CBBF121
:101A70000001ABF1010BF4DC6D1C34E70928010017
:101A80000040404040404040404041414141414091
:101A90004040404040404040404040404040404046
:101AA00040050202020202020202020202020202D5
:101AB00002202020202020202020200202020202DA
:101AC0000202909090909090101010101010101032
:101AD000101010101010101010101010020202023E
:101AE0000202888888888888080808080808080882
:101AF000080808080808080808080808020202027E
:101B000040000000811A0008281B00080000002087
:101B10003C000000A8180008641B00083C000020DE
:101B20005C060000B818000800A24A04000000008B
:101B3000000000000102030406070809000000007D
:101B40000000000000000000000000000000010292
:101B50000304010203040607080902040608000042
:041B60000000000081
:04000005080000ED02
:00000001FF
