:020000040800F2
:100000000004002001010008130400085103000847
:1000100011040008490100088909000800000000D7
:10002000000000000000000000000000710800084F
:10003000C901000800000000BF07000835090008DA
:100040001B0100081B0100081B0100081B01000820
:100050001B0100081B0100081B0100081B01000810
:100060001B0100081B0100081B0100081B01000800
:100070001B0100081B0100081B0100081B010008F0
:100080001B0100081B0100081B0100081B010008E0
:100090001B0100081B0100081B0100081B010008D0
:1000A0001B0100081B0100081B0100081B010008C0
:1000B0001B0100081B0100081B0100081B010008B0
:1000C0001B0100081B0100081B0100081B010008A0
:1000D0001B0100081B0100081B0100081B01000890
:1000E0001B0100081B0100081B010008DFF80CD0F1
:1000F00000F018F800480047910A000800040020AA
:100100000648804706480047FEE7FEE7FEE7FEE7B1
:10011000FEE7FEE7FEE7FEE7FEE7FEE73909000837
:10012000ED000008064C074D06E0E06840F00103D2
:1001300094E8070098471034AC42F6D3FFF7DAFF93
:10014000680B0008780B0008FEE72DE9F0410E4629
:10015000074615460421052000F02AF80021012059
:1001600000F02AFC80210A2000F083FB002405E037
:10017000395D092000F020FC641CE4B2B442F7D3DE
:100180000321012000F018FCFF24052000F024FBCF
:10019000641E14F0FF0401D04007F6D5222000F0C1
:1001A0001BFB2870212000F017FB6870BDE8F08170
:1001B00070B50C46054600F00FFB20EA0401284606
:1001C000BDE8704000F0F8BB70470000F0B5CA7899
:1001D000002502F00F03D20601D58A7813430A786E
:1001E0004FF00F0E12F0FF0F4FF001021CD0046809
:1001F0000F8802FA05F63740B74211D14FEA850C55
:100200000EFA0CF724EA070703FA0CF43C43CF7804
:10021000282F02D0482F02D002E0466100E006619C
:100220006D1C082DE4D304600C88FF2C1ED9446893
:100230005FF0000606F1080702FA07F50F882F4065
:10024000AF420FD14FEA860C0EFA0CF7BC4303FA0B
:100250000CF73C43CF78282F00D14561CF78482F49
:1002600000D10561761C082EE4D34460F0BD02463F
:10027000002092680A4200D0012070474161704717
:1002800001617047F8B50121082000F099FA0120BA
:10029000ADF8000010248DF8034002258DF80250BF
:1002A00069462848FFF792FF0121042000F088FAF0
:1002B0004020ADF8000004208DF80300224E8DF898
:1002C000025069463046FFF781FF0121042000F00B
:1002D00077FA8020ADF800008DF803408DF80250C9
:1002E00069463046FFF772FF0121042000F068FAEA
:1002F0002020ADF800008DF803408DF802506946CB
:100300003046FFF763FF0121042000F059FAADF8F1
:1003100000408DF803408DF8025069463046FFF7E3
:1003200055FF0121102000F04BFA6002ADF80000EB
:100330008DF803408DF8025069460448FFF746FFE8
:10034000F8BD0000000C0140000801400010014011
:10035000FEE7000070B5174D4FF4005421462846C3
:10036000FFF78EFF0A2000F084FB00F09BF900F0FD
:1003700051F800F053F8412000F01EF821462846BD
:10038000FFF77CFF0A2000F074FB21462846FFF7A8
:1003900077FF0A2000F06DFB21462846FFF76EFF2D
:1003A0000A2000F066FB21462846BDE87040FFF7B2
:1003B00067BF00000010014010B5412801D0FF20A8
:1003C00010BD08210846FFF7F3FE3D21112000F083
:1003D000F3FA8621172000F0EFFA7F21262000F0A3
:1003E000EBFA1E212D2000F0E7FA00212C2000F06E
:1003F000E3FA8D212A2000F0DFFA3E212B2000F0C5
:10040000DBFA012000F035FB00F008F8002010BDF9
:10041000FEE7704703211420FFF7CABE10B5142071
:1004200000F0DAF9800705D10321BDE8104014205F
:1004300000F01FBA10BD70B50646082188B0002430
:100440000846FFF7B5FE00210D2000F0B5FA802127
:100450000E20FFF7ADFE93208DF8040020208DF8CC
:10046000050006A801AB0090022219460C2000F0FE
:1004700040F805000DD1002101A8425C7254425C95
:10048000491C5440C9B20429F7D3405CA04200D0B3
:10049000FE2580210E2000F0ECF908B0284670BD42
:1004A00030B587B08DF804008DF80510002001A943
:1004B000145C0D18401CC0B2AC700628F8D30020A4
:1004C0000C181A5C401CC0B222720628F8D306A889
:1004D00000900B460C220E2000F00BF8040004D113
:1004E000082000F079F9000700D4FE2407B0204668
:1004F00030BD2DE9FF5F0027FE25DDF838A0164648
:100500008B468146B8460C2805D0B9F10E0F05D1AF
:100510001227102001E077273020804647F0800125
:10052000022000F049FA80210420FFF741FE00215B
:10053000012000F041FA80210A2000F09AF90024FD
:1005400005E01BF80410092000F036FA641CB442E0
:10055000F7D34946012000F02FFAB9F10C0F03D16F
:1005600080210D2000F085F94FF4FA66042000F098
:1005700033F90446761E04D0E00702D114EA080FCE
:10058000F4D080210D20FFF713FE36B1062000F0D5
:1005900023F910F01B0F0CD0FE2580210C2000F059
:1005A00068F90021012000F007FA04B02846BDE8F0
:1005B000F09F00253C40E00700D0FF25B9F10C0F6B
:1005C000EBD10A2000F008F904460C2000F004F9F1
:1005D00010F007004FEAC40101D008390144CAF8FD
:1005E000001024B1122C04D91224002603E00124A7
:1005F000FBE7002605E0092000F0EEF80399885596
:10060000761CA642F7D3C8E730B587B00D46302137
:100610008DF8041001AC8DF8050002212046A21CC3
:10062000FFF793FD06A801AB0090042219460C20A9
:10063000FFF75FFF10B90699902902D0FE2007B09E
:1006400030BD0023E15CE9545B1CDBB2102BF9D315
:10065000F5E730B50C460546082187B00846FFF798
:10066000A7FD07210D2000F0A7F90321142000F0B9
:1006700000F906A801AB00908DF80450012219463C
:100680000C20FFF736FF10B90699102902D0FE2082
:1006900007B030BD9DF8041021709DF80510617001
:1006A000F6E7000070B52B4C01212046FFF7E8FD6E
:1006B000012000F0DEF901212046FFF7DFFD0120D7
:1006C00000F0D7F901212046FFF7DAFD0A2000F0FB
:1006D000D0F9022000F080F880281DD184011E4D41
:1006E00021462846FFF7CAFD0A2000F0C2F921463C
:1006F0002846FFF7C5FD0A2000F0BBF92146284631
:10070000FFF7BCFD0A2000F0B4F921462846FFF7A8
:10071000B7FD0A2000F0ADF90F21012000F04CF9DF
:100720003D21112000F048F91E212D2000F044F950
:1007300000212C2000F040F98D212A2000F03CF906
:100740003E212B2000F038F94021152000F034F92B
:10075000002070BD000C01400010014010B588B0B1
:1007600093218DF8041070218DF8051000218DF86B
:100770000A1001AA5418435CA370445C9DF80A3027
:10078000491C6340C9B28DF80A300429F2D307210D
:1007900001A8D21DFFF7D9FC08210846FFF708FD84
:1007A00006A801AB0090092219460C20FFF7A1FE14
:1007B00010B90699182900D0FE2008B010BD704766
:1007C000044A0029916901D0014300E0814391610D
:1007D00070470000001002402DE9F041234C06460E
:1007E000002510212046FFF749FD7E2000EA460043
:1007F00040F08007082620212046FFF73FFD3806FD
:100800004FF08001204602D5FFF73AFD01E0FFF7E7
:1008100035FD20212046FFF733FD7806070E761EB2
:1008200016F0FF06E7D1082620212046FFF726FD17
:100830006806050E20212046FFF722FD40212046B4
:10084000FFF715FD012801D145F00105761E16F0D0
:10085000FF06E9D110212046FFF712FD2021204696
:10086000FFF70EFD2846BDE8F081000000080140BA
:10087000704770B50C460546FFF7AEFF40EA04012D
:100880002846BDE8704000F097B800000CB5002184
:10089000264801910091026842F4803202604FF4D0
:1008A000A063026802F400320092019A521C019285
:1008B000009A12B9019A9A42F3D10268920333D591
:1008C000012100911A490A6842F010020A600A6880
:1008D00022F003020A600A6842F002020A604168DC
:1008E000416041684160416841F480614160416814
:1008F00021F47C114160416841F4E81141600168D4
:1009000041F08071016001688901FCD5416821F0E6
:1009100003014160416841F0020141604168C1F357
:1009200081010229FAD10CBD00910CBD00100240DA
:1009300000200240704700000F4810B5016841F0E8
:100940000101016041680D4A1140416001680C4A93
:1009500011400160016821F480210160416821F4A7
:10096000FE0141604FF41F018160FFF78FFF0549D1
:100970004FF00060086010BD001002400000FFF85A
:10098000FFFFF6FE08ED00E0FEE708B569465220DD
:10099000FFF75FFE50B169465220FFF75AFE28B1BB
:1009A00069465220FFF755FE002803D1642000F06D
:1009B00060F8EBE708BD00002DE9F041244C0E463D
:1009C000054620212046FFF759FC10212046FFF75D
:1009D00055FC7E2000EA4507082538064FF08001C7
:1009E000204602D5FFF74CFC01E0FFF747FC202131
:1009F0002046FFF745FC7806070E20212046FFF72A
:100A00003DFC6D1E15F0FF05E7D1082530064FF0BF
:100A10008001204602D5FFF733FC01E0FFF72EFCF2
:100A200020212046FFF72CFC7006060E20212046D0
:100A3000FFF724FC6D1E15F0FF05E7D110212046BD
:100A4000FFF71EFC2046BDE8F0412021FFF718BC4F
:100A50000008014002E008C8121F08C1002AFAD1AC
:100A600070477047002001E001C1121F002AFBD12E
:100A7000704710B500214EF6602405E0224602239F
:100A80005B1C9342FCD3491C8142F7D310BD00008C
:100A900032A188B0D1E90001CDE90001FFF7F2FBF6
:100AA000FFF758FC2F4D4FF4005407A95220FFF7D1
:100AB000D0FD00284CD102A8FFF7BDFC002847D18B
:100AC00002A8FFF74BFE002842D1032102AB6A4681
:100AD0006020FFF7E5FCD8BB002003A9FFF794FDD9
:100AE000B0BB21462846FFF7C9FB0A20FFF7C1FF2C
:100AF00021462846FFF7C4FB0A20FFF7BAFF21462C
:100B00002846FFF7BBFB0A20FFF7B3FF2146284624
:100B1000FFF7B6FB0A20FFF7ACFF21462846FFF798
:100B2000ADFB0A20FFF7A5FF21462846FFF7A8FBEB
:100B30000A20FFF79EFF21462846FFF79FFB0A2069
:100B4000FFF797FF21462846FFF79AFBFFF71DFFA7
:100B500021462846FFF794FBA7E70000FFFFFFFFB1
:100B6000FFFF000000100140780B0008000000208B
:080B700000040000640A000803
:04000005080000ED02
:00000001FF
